:100000000C942A000C9434000C9434000C943400AA
:100010000C9434000C9434000C9434000C94340090
:100020000C9434000C9434000C9434000C94340080
:100030000C9434000C9434000C9434000C94340070
:100040000C9434000C9434000C9434000C94340060
:100050000C94340011241FBECFE5D8E0DEBFCDBF25
:100060000E9436000C9463010C94000040E062E0B2
:1000700083E00E94590061E082E00E94350161E066
:1000800082E00E94490162E083E00E94E900811160
:1000900005C061E082E00E944901F5CF62E083E0A3
:1000A0000E94E900813079F761E082E00E94560108
:1000B000EACF683008F07BC0843008F07AC0423064
:1000C00008F079C0813011F130F08230D1F1833005
:1000D00009F452C072C0413061F42AB381E090E06B
:1000E00002C0880F991F6A95E2F7822B8ABB80E0D5
:1000F00008952AB381E090E002C0880F991F6A95A5
:10010000E2F7809582238ABB80E00895413061F454
:1001100027B381E090E002C0880F991F6A95E2F74B
:10012000822B87BB80E0089527B381E090E002C076
:10013000880F991F6A95E2F78095822387BB80E03C
:100140000895413061F424B381E090E002C0880F4B
:10015000991F6A95E2F7822B84BB80E0089524B34F
:1001600081E090E002C0880F991F6A95E2F78095C0
:10017000822384BB80E00895413061F421B381E0A3
:1001800090E002C0880F991F6A95E2F7822B81BB2D
:1001900080E0089521B381E090E002C0880F991FAC
:1001A0006A95E2F78095822381BB80E0089581E023
:1001B000089582E0089583E0089580E0089568300E
:1001C00020F4843020F082E0089581E0089583E0F7
:1001D00008956830B0F58430B0F5813089F028F0AA
:1001E0008230C9F0833011F130C089B390E002C091
:1001F000959587956A95E2F780FF29C081E008957B
:1002000086B390E002C0959587956A95E2F780FFE6
:1002100020C081E0089583B390E002C09595879552
:100220006A95E2F780FF17C081E0089580B390E0FF
:1002300002C0959587956A95E2F780FF0EC081E030
:10024000089580E0089580E0089580E0089580E0BA
:10025000089580E0089580E0089580E00895843056
:1002600010F082E0089583E00895CF93683060F441
:10027000843060F4C82F41E00E94590061E08C2F67
:100280000E942F0180E003C081E001C082E0CF9195
:100290000895683038F4843038F441E00E94DF007B
:1002A00080E0089581E0089582E00895683038F490
:1002B000843038F440E00E94DF0080E0089581E05F
:0A02C000089582E00895F894FFCF3E
:00000001FF
