:100000000C942A000C9447000C9447000C94470071
:100010000C9447000C9447000C9447000C94470044
:100020000C9447000C94361F0C9447000C94470026
:100030000C9447000C9447000C9447000C94470024
:100040000C9447000C9447000C9447000C94470014
:100050000C94470011241FBECFE5D4E0DEBFCDBF16
:1000600011E0A8E6B1E001C01D92AB36B107E1F79F
:1000700011E0A0E6B0E0ECEAF1E402C005900D92D8
:10008000A836B107D9F70E947F1F0C94D4200C9496
:100090000000EF92FF920F931F937B018C0120E0F1
:1000A00030E040E05FE40E94250488238CF0C80122
:1000B000B70120E030E040E05FE40E94C1010E940F
:1000C000E3049B01AC01205030404040504806C042
:1000D000C801B7010E94E3049B01AC01B901CA0148
:1000E0001F910F91FF90EF900895A0E0B0E0EBE733
:1000F000F0E00C94DC1FDC012B01FA019C919230A2
:1001000008F439C1EB018881823008F433C194309E
:1001100069F4843009F02FC111969C91119789815F
:10012000981709F428C1A0E6B0E025C1843009F48D
:1001300021C18230A9F4923009F01DC19A01AD01AC
:1001400088E0EA010990AE01E90109929E0181501F
:10015000C1F7E201898111969C918923818308C1AD
:10016000923009F407C112962D903C901397EB0141
:100170008A819B811496AD90BD90CD90DC901797AD
:10018000EC80FD800E811F819101281B390BB90184
:1001900037FF04C066277727621B730B6032710537
:1001A0000CF061C0121613066CF537014801062EDB
:1001B00004C096948794779467940A94D2F721E0C8
:1001C00030E040E050E004C0220F331F441F551FB1
:1001D0006A95D2F721503040404050402E213F21B7
:1001E00040235123211531054105510521F021E01E
:1001F00030E040E050E079018A01E628F72808293C
:1002000019293CC0232BD1F1260E371E350146019A
:10021000062E04C096948794779467940A94D2F734
:1002200021E030E040E050E004C0220F331F441FC3
:10023000551F6A95D2F721503040404050402A2146
:100240003B214C215D21211531054105510521F04E
:1002500021E030E040E050E059016A01A628B728CB
:10026000C828D9280BC0821593052CF01C01AA249C
:10027000BB24650103C0EE24FF24870111969C91E5
:10028000D20111968C91981709F445C0992339F041
:10029000A80197012A193B094C095D0906C0A6016E
:1002A00095012E193F09400B510B57FD08C01182D3
:1002B0003382228224833583468357831DC081E0A5
:1002C00081833382228288279927DC01821B930B4A
:1002D000A40BB50B84839583A683B7830DC0220F2F
:1002E000331F441F551F24833583468357838281E0
:1002F000938101979383828324813581468157813D
:10030000DA01C9010197A109B1098F5F9F4FAF4F72
:10031000BF4328F30BC0918333822282EA0CFB1C7B
:100320000C1D1D1DE482F5820683178383E0808304
:10033000248135814681578157FF1AC0C901AA27F8
:1003400097FDA095BA2F81709070A070B0705695EF
:10035000479537952795822B932BA42BB52B848318
:100360009583A683B7838281938101969383828349
:10037000DF0101C0D201CD01CDB7DEB7E2E10C94BF
:10038000F81FA0E2B0E0E7ECF1E00C94E81F69830D
:100390007A838B839C832D833E834F835887E9E048
:1003A000EE2EF12CEC0EFD1ECE010196B7010E943F
:1003B000D4068E010F5E1F4FCE010596B8010E9434
:1003C000D4068A8991E089278A8BC701B801AE01DA
:1003D000475E5F4F0E9475000E94FF05A096E6E011
:1003E0000C940420A0E2B0E0E8EFF1E00C94E81FE8
:1003F00069837A838B839C832D833E834F835887C5
:10040000F9E0EF2EF12CEC0EFD1ECE010196B701A6
:100410000E94D4068E010F5E1F4FCE010596B801D3
:100420000E94D406C701B801AE01475E5F4F0E942B
:1004300075000E94FF05A096E6E00C940420A0E25F
:10044000B0E0E5E2F2E00C94DC1F69837A838B83F1
:100450009C832D833E834F835887CE010196BE0136
:10046000675F7F4F0E94D406CE010596BE016F5E86
:100470007F4F0E94D4069985923088F08989823016
:10048000C8F0943019F4823051F404C0843029F457
:10049000923081F480E690E0C6C0923049F420E0CA
:1004A0009A858A89981321E02A87CE010996BBC0D4
:1004B000823049F420E09A858A89981321E02A8BBA
:1004C000CE014196B0C02D843E844F8458886D88FB
:1004D0007E888F88988CEE24FF248701AA24BB2471
:1004E000650140E050E060E070E0E0E0F0E0C10174
:1004F00081709070892BE9F0E60CF71C081D191D1E
:100500009A01AB012A0D3B1D4C1D5D1D80E090E062
:10051000A0E0B0E0E614F7040805190520F481E036
:1005200090E0A0E0B0E0BA01A901480F591F6A1F8E
:100530007B1FAA0CBB1CCC1CDD1C97FE08C081E0F5
:1005400090E0A0E0B0E0A82AB92ACA2ADB2A3196B6
:10055000E032F10549F0660C771C881C991C569412
:10056000479437942794C3CFFA85EA892B893C892D
:100570008B859C85280F391F2E5F3F4F17C0CA01FE
:1005800081709070892B61F016950795F794E79428
:1005900080E090E0A0E0B0E8E82AF92A0A2B1B2BC3
:1005A00076956795579547952F5F3F4F77FDE7CF36
:1005B0000CC0440F551F661F771F17FD4160EE0CDE
:1005C000FF1C001F111F21503040403090E05907A0
:1005D00090E0690790E4790760F32B8F3C8FDB0193
:1005E000CA018F779070A070B07080349105A1051A
:1005F000B10561F447FD0AC0E114F10401051105DC
:1006000029F0405C5F4F6F4F7F4F40781A8EFE1786
:1006100011F081E08A8F4D8F5E8F6F8F78A383E01A
:10062000898FCE0149960E94FF05A096E2E10C94C5
:10063000F81FA8E1B0E0EFE1F3E00C94E41F698358
:100640007A838B839C832D833E834F835887B9E0C5
:10065000EB2EF12CEC0EFD1ECE010196B7010E948F
:10066000D4068E010F5E1F4FCE010596B8010E9481
:10067000D4062985223008F47EC03989323010F43E
:10068000B8017CC08A859A8989278A87243011F02D
:10069000223031F4231709F06EC060E670E06EC0BE
:1006A000343039F41D861E861F86188A1C861B86E8
:1006B00004C0323021F484E08987B7015FC02B8504
:1006C0003C858B899C89281B390B3C872B87ED84C3
:1006D000FE840F851889AD88BE88CF88D88CEA142F
:1006E000FB040C051D0540F4EE0CFF1C001F111F40
:1006F000215030403C872B8720E030E040E050E044
:1007000080E090E0A0E0B0E460E070E0EA14FB0478
:100710000C051D0540F0282B392B4A2B5B2BEA18C2
:10072000FB080C091D09B695A79597958795EE0CC2
:10073000FF1C001F111F6F5F7F4F6F31710531F775
:10074000DA01C9018F779070A070B0708034910584
:10075000A105B10561F427FD0AC0E114F10401050A
:10076000110529F0205C3F4F4F4F5F4F20782D87B8
:100770003E874F87588BBE01675F7F4FCB010E943A
:10078000FF056896EAE00C940020A8E1B0E0EBECED
:10079000F3E00C94E81F69837A838B839C832D8319
:1007A0003E834F83588789E0E82EF12CEC0EFD1E26
:1007B000CE010196B7010E94D4068E010F5E1F4F35
:1007C000CE010596B8010E94D4068985823040F09A
:1007D0008989823028F0C701B8010E944C0701C006
:1007E00081E06896E6E00C940420A8E1B0E0EBEF2D
:1007F000F3E00C94E81F69837A838B839C832D83B9
:100800003E834F83588789E0E82EF12CEC0EFD1EC5
:10081000CE010196B7010E94D4068E010F5E1F4FD4
:10082000CE010596B8010E94D4068985823040F039
:100830008989823028F0C701B8010E944C0701C0A5
:100840008FEF6896E6E00C940420A8E1B0E0EBE2BC
:10085000F4E00C94E81F69837A838B839C832D8357
:100860003E834F83588789E0E82EF12CEC0EFD1E65
:10087000CE010196B7010E94D4068E010F5E1F4F74
:10088000CE010596B8010E94D4068985823040F0D9
:100890008989823028F0C701B8010E944C0701C045
:1008A0008FEF6896E6E00C940420A8E1B0E0EBE559
:1008B000F4E00C94E81F69837A838B839C832D83F7
:1008C0003E834F83588789E0E82EF12CEC0EFD1E05
:1008D000CE010196B7010E94D4068E010F5E1F4F14
:1008E000CE010596B8010E94D4068985823040F079
:1008F0008989823028F0C701B8010E944C0701C0E5
:1009000081E06896E6E00C940420A8E0B0E0EBE813
:10091000F4E00C94E51F9B01AC0183E08983DA01CC
:10092000C9018827B7FD83959927AA27BB27B82E29
:10093000211531054105510519F482E089833AC03A
:100940008823A9F0203080E0380780E0480780E85D
:10095000580729F460E070E080E09FEC30C0EE249E
:10096000FF248701E21AF30A040B150B02C0790178
:100970008A018EE1C82ED12CDC82CB82ED82FE82F0
:100980000F831887C801B7010E94B0050197181698
:10099000190684F4082E04C0EE0CFF1C001F111F62
:1009A0000A94D2F7ED82FE820F831887C81AD90AFB
:1009B000DC82CB82BA82CE0101960E94FF05289686
:1009C000E9E00C940120ACE0B0E0E9EEF4E00C9436
:1009D000EC1F69837A838B839C83CE010196BE01D1
:1009E0006B5F7F4F0E94D4068D81823061F182302F
:1009F00050F1843021F48E81882351F12EC02F8153
:100A0000388537FD20C06E812F3131051CF06623FB
:100A1000F9F023C08EE190E0821B930B29853A8583
:100A20004B855C8504C056954795379527958A95E3
:100A3000D2F76623B1F050954095309521953F4F00
:100A40004F4F5F4F0EC020E030E040E050E009C063
:100A50002FEF3FEF4FEF5FE704C020E030E040E0D2
:100A600050E8B901CA012C96E2E00C940820A8E0F5
:100A7000B0E0EDE3F5E00C94E41F7B018C0161151F
:100A800071058105910519F482E0898360C083E0D6
:100A900089838EE1C82ED12CDC82CB82ED82FE824E
:100AA0000F831887C801B7010E94B005FC01319778
:100AB000F7FF3BC0222733272E1B3F0B570168014E
:100AC000022E04C0D694C794B794A7940A94D2F780
:100AD00040E050E060E070E081E090E0A0E0B0E055
:100AE00004C0880F991FAA1FBB1F2A95D2F7019730
:100AF000A109B1098E219F21A023B1230097A1054F
:100B0000B10521F041E050E060E070E04A295B2946
:100B10006C297D294D835E836F8378878EE190E019
:100B20008E1B9F0B9C838B8312C0309781F00E2EFF
:100B300004C0EE0CFF1C001F111F0A94D2F7ED82B7
:100B4000FE820F831887CE1ADF0ADC82CB821A82DC
:100B5000CE0101960E94FF052896EAE00C94002041
:100B6000EF92FF920F931F937B018C0180E0E816B8
:100B700080E0F80681E0080780E0180788F48FEF2E
:100B8000E816F1040105110531F028F088E090E045
:100B9000A0E0B0E017C080E090E0A0E0B0E012C0BC
:100BA00080E0E81680E0F80680E0080781E018079A
:100BB00028F088E190E0A0E0B0E004C080E190E09F
:100BC000A0E0B0E020E230E040E050E0281B390B2C
:100BD0004A0B5B0B04C016950795F794E7948A952A
:100BE000D2F7F701E859FF4F8081281B31094109ED
:100BF0005109C9011F910F91FF90EF900895DF9265
:100C0000EF92FF920F931F93FC01E480F580068121
:100C10001781D1808081823048F480E090E0A0E1AB
:100C2000B0E0E82AF92A0A2B1B2BA5C0843009F46E
:100C30009FC0823021F4EE24FF24870105C0E11417
:100C4000F1040105110519F4E0E0F0E096C06281BD
:100C500073819FEF623879070CF05BC022E83FEFA9
:100C6000261B370B2A3131052CF020E030E040E024
:100C700050E02AC0B801A701022E04C076956795FE
:100C8000579547950A94D2F781E090E0A0E0B0E054
:100C900004C0880F991FAA1FBB1F2A95D2F701977E
:100CA000A109B1098E219F21A023B1230097A1059D
:100CB000B10521F081E090E0A0E0B0E09A01AB0145
:100CC000282B392B4A2B5B2BDA01C9018F779070C7
:100CD000A070B07080349105A105B10539F427FFEB
:100CE00009C0205C3F4F4F4F5F4F04C0215C3F4F16
:100CF0004F4F5F4FE0E0F0E02030A0E03A07A0E087
:100D00004A07A0E45A0710F0E1E0F0E079018A0117
:100D100027C06038710564F5FB01E158FF4FD80129
:100D2000C7018F779070A070B07080349105A105D5
:100D3000B10539F4E7FE0DC080E490E0A0E0B0E03A
:100D400004C08FE390E0A0E0B0E0E80EF91E0A1FB7
:100D50001B1F17FF05C016950795F794E79431966A
:100D600087E016950795F794E7948A95D1F705C023
:100D7000EE24FF248701EFEFF0E06E2F67956627E2
:100D80006795902F9F77D794DD24D7948E2F8695E3
:100D9000492F462B582F5D29B701CA011F910F918A
:100DA000FF90EF90DF900895FC01DB0140815181BD
:100DB0002281622F6F7770E0221F2227221F9381EA
:100DC000892F880F822B282F30E0991F9927991F90
:100DD00011969C93119721153105A9F541155105DF
:100DE0006105710511F482E037C082E89FEF139628
:100DF0009C938E9312979A01AB0167E0220F331FE9
:100E0000441F551F6A95D1F783E08C930DC0220FC4
:100E1000331F441F551F12968D919C911397019774
:100E200013969C938E931297203080E0380780E0D1
:100E3000480780E4580758F314962D933D934D933B
:100E40005C93179708952F3F310579F441155105AB
:100E50006105710519F484E08C93089564FF03C063
:100E600081E08C9312C01C9210C02F573040139613
:100E70003C932E93129783E08C9387E0440F551F89
:100E8000661F771F8A95D1F7706414964D935D9312
:100E90006D937C93179708951F93DC01FB019C9140
:100EA000923008F447C08081823008F443C0943007
:100EB00051F411961C91843099F58181682F70E06E
:100EC000611B71093FC0843021F0923031F48230CF
:100ED000B9F18181882389F12DC011961C91119758
:100EE0008230F1F081811817D9F412962D913C913E
:100EF0001397828193818217930794F028173907FB
:100F0000BCF014968D919D910D90BC91A02D2481E3
:100F1000358146815781281739074A075B0718F43E
:100F2000112341F00AC082179307A407B50740F4C4
:100F3000112319F061E070E005C06FEF7FEF02C090
:100F400060E070E0CB011F910895DF93CF9300D054
:100F500000D000D0CDB7DEB76B837C838D839E83BA
:100F60001A821982ABE2B0E0EBE2F0E080818260AD
:100F70008C93AAE2B0E0EAE2F0E0808188608C9392
:100F8000AAE2B0E0EAE2F0E0808180618C93A0E424
:100F9000B0E0E0E4F0E0808180688C93A0E4B0E011
:100FA000E0E4F0E080818F7B8C93A0E4B0E0E0E4AB
:100FB000F0E0808188608C93A0E4B0E0E0E4F0E0B1
:100FC00080818B7F8C93A0E4B0E0E0E4F0E080814E
:100FD00084608C93A0E4B0E0E0E4F0E08081826083
:100FE0008C938B819C81AD81BE81880F991FAA1F34
:100FF000BB1F880F991FAA1FBB1F880F991FAA1F0D
:10100000BB1F880F991FAA1FBB1F880F991FAA1FFC
:10101000BB1F880F991FAA1FBB1F9C01AD0180E455
:1010200092E4AFE0B0E0BC01CD010E94BA1FDA014A
:10103000C90101979A838983E0E4F0E089819A816C
:10104000892F99278083E9E2F0E0898180832696C1
:101050000FB6F894DEBF0FBECDBFCF91DF910895DC
:10106000DF93CF930F92CDB7DEB78983EBE2F0E049
:101070008081882F90E0807290700097B9F3ECE245
:10108000F0E0898180830F90CF91DF910895DF9305
:10109000CF93CDB7DEB7EBE2F0E080818823DCF7B9
:1010A000ECE2F0E08081CF91DF910895DF93CF9360
:1010B00000D00F92CDB7DEB79B838A8319820EC012
:1010C0008981282F30E08A819B81FC01E20FF31F88
:1010D00080810E94300889818F5F89838981282FD0
:1010E00030E08A819B81FC01E20FF31F808188231D
:1010F00039F70F900F900F90CF91DF9108950F93D4
:101100001F93DF93CF9300D00F92CDB7DEB79B83B1
:101110008A8319828981282F30E08A819B818C0102
:10112000020F131F0E944708F80180830FC08981B6
:101130008F5F89838981282F30E08A819B818C0190
:10114000020F131F0E944708F80180838981282F0E
:1011500030E08A819B81FC01E20FF31F80818332A2
:1011600031F78981282F30E08A819B81FC01E20FD1
:10117000F31F10820F900F900F90CF91DF911F916E
:101180000F910895DF93CF93CDB7DEB7E3E5F0E09D
:1011900085E08083CF91DF910895DF93CF93CDB722
:1011A000DEB70E94D608CF91DF910895DF93CF93E9
:1011B000CDB7DEB7A3E5B0E0E3E5F0E0808180687D
:1011C0008C93A3E5B0E0E3E5F0E080818F7B8C9326
:1011D000A3E5B0E0E3E5F0E08081877F8C93A3E5B1
:1011E000B0E0E3E5F0E080818F7D8C93A3E5B0E093
:1011F000E3E5F0E080818F7E8C93A9E5B0E0E9E53E
:10120000F0E0808181608C93CF91DF910895DF932E
:10121000CF93CDB7DEB7A3E5B0E0E3E5F0E08081A2
:1012200080688C93A3E5B0E0E3E5F0E080818F7BFC
:101230008C93A3E5B0E0E3E5F0E0808188608C93D7
:10124000A3E5B0E0E3E5F0E080818F7D8C93A3E53A
:10125000B0E0E3E5F0E0808180618C93CF91DF9195
:101260000895DF93CF93CDB7DEB7A3E5B0E0E3E514
:10127000F0E080818F778C93A3E5B0E0E3E5F0E0C8
:10128000808180648C93A3E5B0E0E3E5F0E08081A9
:1012900088608C93A3E5B0E0E3E5F0E080818062B4
:1012A0008C93A3E5B0E0E3E5F0E080818F7E8C9342
:1012B000CF91DF910895DF93CF93CDB7DEB7AEE442
:1012C000B0E0EEE4F0E0808181608C93AEE4B0E0C9
:1012D000EEE4F0E080818D7F8C93AEE4B0E0EEE44C
:1012E000F0E0808184608C93CF91DF910895DF934B
:1012F000CF93CDB7DEB7CF91DF910895DF93CF9332
:10130000CDB7DEB7A5E4B0E0E5E4F0E08081816030
:101310008C93A5E4B0E0E5E4F0E080818D7F8C93D0
:10132000A5E4B0E0E5E4F0E0808184608C93CF91A7
:10133000DF910895DF93CF93CDB7DEB7CF91DF91E3
:101340000895DF93CF93CDB7DEB70E94C2080E9405
:10135000CD08CF91DF910895DF93CF93CDB7DEB75E
:1013600061970FB6F894DEBF0FBECDBF6E877F8743
:10137000888B998B80E090E0A0E0B0E08A879B8723
:10138000AC87BD8780E090E0A0E0B0E08E839F83D3
:10139000A887B98780E090E0A0E0B0E08A839B83D3
:1013A000AC83BD8319828DEB97E3A6E8BAE38A8705
:1013B0009B87AC87BD876A857B858C859D8520E072
:1013C00030E040E853E40E941F02DC01CB018E8331
:1013D0009F83A887B9876E857F85888999892E81A3
:1013E0003F81488559850E941903DC01CB01BC016E
:1013F000CD010E943420DC01CB018A839B83AC8326
:10140000BD830E94A10913C0E8E5F0E08081882F28
:1014100090E0817090700097B9F389818F5F898324
:10142000A8E5B0E0E8E5F0E0808181608C938981F7
:10143000882F90E0AA2797FDA095BA2FBC01CD0177
:101440000E948504DC01CB01BC01CD012A813B81D6
:101450004C815D810E9455048823B4F219820E9458
:10146000A10961960FB6F894DEBF0FBECDBFCF9134
:10147000DF910895DF93CF93CDB7DEB761970FB6B5
:10148000F894DEBF0FBECDBF6E877F87888B998BA8
:1014900080E090E0A0E0B0E08A879B87AC87BD87C2
:1014A00080E090E0A0E0B0E08E839F83A887B987BA
:1014B00080E090E0A0E0B0E08A839B83AC83BD83B2
:1014C00019828DEB97E3A6E8BAE38A879B87AC87FE
:1014D000BD876A857B858C859D8520E030E040E86E
:1014E00053E40E941F02DC01CB018E839F83A887F7
:1014F000B9876E857F85888999892E813F81488546
:1015000059850E941903DC01CB01BC01CD010E9469
:101510003420DC01CB018A839B83AC83BD8389812A
:101520008F5F89838981882F90E0AA2797FDA095F6
:10153000BA2FBC01CD010E948504DC01CB01BC01A6
:10154000CD012A813B814C815D810E94C5038823A6
:1015500009F4198261960FB6F894DEBF0FBECDBFB5
:10156000CF91DF910895DF93CF93CDB7DEB781E0C0
:1015700064E041E00E949D0C81E065E041E00E9452
:101580009D0C81E066E040E00E949D0C81E067E0F8
:1015900041E00E949D0CADE2B0E0EDE2F0E0808120
:1015A00080648C93ADE2B0E0EDE2F0E08081806198
:1015B0008C93ADE2B0E0EDE2F0E080818D7F8C9322
:1015C000ADE2B0E0EDE2F0E080818E7F8C93AEE2A0
:1015D000B0E0EEE2F0E080818E7F8C93CF91DF91DE
:1015E0000895DF93CF93CDB7DEB781E064E040E0AC
:1015F0000E949D0C81E065E040E00E949D0C81E02E
:1016000066E041E00E949D0C81E067E040E00E94BE
:101610009D0CADE2B0E0EDE2F0E0808180648C935F
:10162000ADE2B0E0EDE2F0E080818F7E8C93ADE240
:10163000B0E0EDE2F0E080818D7F8C93ADE2B0E030
:10164000EDE2F0E080818E7F8C93AEE2B0E0EEE2DE
:10165000F0E080818E7F8C93CF91DF910895DF93AE
:10166000CF930F92CDB7DEB78983EFE2F0E08981A7
:101670008083EEE2F0E080818823DCF7EFE2F0E0A7
:1016800080810F90CF91DF910895DF93CF9300D0A9
:1016900000D0CDB7DEB79C838B831A8219820FC02E
:1016A0008A81282F30E08B819C81FC01E20FF31F9F
:1016B00080810E942F0B89838A818F5F8A838A8130
:1016C000282F30E08B819C81FC01E20FF31F808189
:1016D000882331F70F900F900F900F90CF91DF91EB
:1016E00008950F931F93DF93CF9300D00F92CDB740
:1016F000DEB79B838A8319828981282F30E08A8113
:101700009B818C01020F131F8FEF0E942F0BF8019A
:10171000808310C089818F5F89838981282F30E081
:101720008A819B818C01020F131F8FEF0E942F0B68
:10173000F80180838981282F30E08A819B81FC0118
:10174000E20FF31F8081833229F78981282F30E04F
:101750008A819B81FC01E20FF31F10820F900F9092
:101760000F90CF91DF911F910F910895DF93CF9349
:10177000CDB7DEB7AFE4B0E0EFE4F0E080818F7783
:101780008C93AFE4B0E0EFE4F0E080818F7B8C934A
:10179000AFE4B0E0EFE4F0E080818F7D8C93AFE4C4
:1017A000B0E0EFE4F0E080818F7E8C93AFE4B0E0B6
:1017B000EFE4F0E0808188608C93AFE4B0E0EFE488
:1017C000F0E0808184608C93AFE4B0E0EFE4F0E07F
:1017D00080818D7F8C93AFE4B0E0EFE4F0E0808116
:1017E0008E7F8C93AEE4B0E0EEE4F0E080818F7702
:1017F0008C93AEE4B0E0EEE4F0E0808180648C9302
:10180000AEE4B0E0EEE4F0E080818B7F8C93AEE458
:10181000B0E0EEE4F0E080818D7F8C93AEE4B0E048
:10182000EEE4F0E0808181608C93ECE4F0E01182E2
:101830001082E6E4F0E011821082CF91DF910895EA
:10184000DF93CF93CDB7DEB7E1E2F0E01082E0E2C4
:10185000F0E082E08083E2E2F0E082E08083E6E58F
:10186000F0E084E08083CF91DF910895DF93CF9300
:10187000CDB7DEB7E6E5F0E084EA8083E6E5F0E0A8
:1018800080818823DCF7CF91DF910895DF93CF9398
:10189000CDB7DEB7E6E5F0E084E98083CF91DF9154
:1018A0000895DF93CF930F92CDB7DEB78983E6E536
:1018B000F0E084E88083E3E2F0E089818083E6E57C
:1018C000F0E080818823DCF70F90CF91DF910895BD
:1018D000DF93CF93CDB7DEB7E6E5F0E084EC80830D
:1018E000E6E5F0E080818823DCF7E3E2F0E0808148
:1018F000CF91DF910895DF93CF93CDB7DEB7E6E5C3
:10190000F0E084E88083E6E5F0E080818823DCF77E
:10191000E3E2F0E08081CF91DF910895DF93CF93F0
:101920000F92CDB7DEB7E1E2F0E08081887F898356
:1019300089810F90CF91DF910895DF93CF9300D0ED
:1019400000D000D0CDB7DEB78A836B834C83198279
:101950008B81883018F081E08983E1C08A818430EE
:1019600018F082E08983DBC08C81882331F08C8180
:10197000813019F083E08983D2C08A81282F30E03A
:101980003E832D838D819E818130910509F443C072
:101990002D813E81223031052CF48D819E8100976E
:1019A00071F0BCC02D813E812230310509F45FC049
:1019B0008D819E818330910509F485C0AFC08C81F3
:1019C0008130A1F4AAE3B0E0EAE3F0E08081482F9F
:1019D0008B81282F30E081E090E0022E02C0880F3A
:1019E000991F0A94E2F7842B8C9398C0AAE3B0E085
:1019F000EAE3F0E08081482F8B81282F30E081E0FE
:101A000090E0022E02C0880F991F0A94E2F7809599
:101A100084238C9383C08C818130A1F4A7E3B0E050
:101A2000E7E3F0E08081482F8B81282F30E081E0D0
:101A300090E0022E02C0880F991F0A94E2F7842BCF
:101A40008C936CC0A7E3B0E0E7E3F0E08081482F1F
:101A50008B81282F30E081E090E0022E02C0880FB9
:101A6000991F0A94E2F7809584238C9357C08C8148
:101A70008130A1F4A4E3B0E0E4E3F0E08081482FFA
:101A80008B81282F30E081E090E0022E02C0880F89
:101A9000991F0A94E2F7842B8C9340C0A4E3B0E032
:101AA000E4E3F0E08081482F8B81282F30E081E053
:101AB00090E0022E02C0880F991F0A94E2F78095E9
:101AC00084238C932BC08C818130A1F4A1E3B0E0FE
:101AD000E1E3F0E08081482F8B81282F30E081E026
:101AE00090E0022E02C0880F991F0A94E2F7842B1F
:101AF0008C9314C0A1E3B0E0E1E3F0E08081482FD3
:101B00008B81282F30E081E090E0022E02C0880F08
:101B1000991F0A94E2F7809584238C931982898116
:101B200026960FB6F894DEBF0FBECDBFCF91DF91E2
:101B30000895DF93CF9300D000D000D0CDB7DEB7AB
:101B40008A836B834C8319828B81883018F081E003
:101B50008983E1C08A81843018F082E08983DBC008
:101B60008C81813031F08C81882319F083E0898366
:101B7000D2C08A81282F30E03E832D838D819E81C3
:101B80008130910509F443C02D813E812230310519
:101B90002CF48D819E81009771F0BCC02D813E8117
:101BA0002230310509F45FC08D819E81833091051B
:101BB00009F485C0AFC08C818130A1F4ABE3B0E003
:101BC000EBE3F0E08081482F8B81282F30E081E02B
:101BD00090E0022E02C0880F991F0A94E2F7842B2E
:101BE0008C9398C0ABE3B0E0EBE3F0E08081482F4A
:101BF0008B81282F30E081E090E0022E02C0880F18
:101C0000991F0A94E2F7809584238C9383C08C817A
:101C10008130A1F4A8E3B0E0E8E3F0E08081482F50
:101C20008B81282F30E081E090E0022E02C0880FE7
:101C3000991F0A94E2F7842B8C936CC0A8E3B0E060
:101C4000E8E3F0E08081482F8B81282F30E081E0AD
:101C500090E0022E02C0880F991F0A94E2F7809547
:101C600084238C9357C08C818130A1F4A5E3B0E02C
:101C7000E5E3F0E08081482F8B81282F30E081E080
:101C800090E0022E02C0880F991F0A94E2F7842B7D
:101C90008C9340C0A5E3B0E0E5E3F0E08081482FFD
:101CA0008B81282F30E081E090E0022E02C0880F67
:101CB000991F0A94E2F7809584238C932BC08C8122
:101CC0008130A1F4A2E3B0E0E2E3F0E08081482FAC
:101CD0008B81282F30E081E090E0022E02C0880F37
:101CE000991F0A94E2F7842B8C9314C0A2E3B0E00E
:101CF000E2E3F0E08081482F8B81282F30E081E003
:101D000090E0022E02C0880F991F0A94E2F7809596
:101D100084238C931982898126960FB6F894DEBFAE
:101D20000FBECDBFCF91DF910895DF93CF9300D049
:101D300000D00F92CDB7DEB78A836B8319828B8177
:101D4000883018F081E0898375C08A81843018F06A
:101D500082E089836FC08A81282F30E03D832C8305
:101D60008C819D818130910549F12C813D8122300A
:101D700031052CF48C819D81009761F05AC02C8133
:101D80003D812230310571F18C819D818330910537
:101D9000E9F14FC0ABE3B0E0EBE3F0E08081482F26
:101DA0008B81282F30E081E090E0022E02C0880F66
:101DB000991F0A94E2F784278C933BC0A8E3B0E014
:101DC000E8E3F0E08081482F8B81282F30E081E02C
:101DD00090E0022E02C0880F991F0A94E2F7842730
:101DE0008C9327C0A5E3B0E0E5E3F0E08081482FC5
:101DF0008B81282F30E081E090E0022E02C0880F16
:101E0000991F0A94E2F784278C9313C0A2E3B0E0F1
:101E1000E2E3F0E08081482F8B81282F30E081E0E1
:101E200090E0022E02C0880F991F0A94E2F78427DF
:101E30008C93198289810F900F900F900F900F90C3
:101E4000CF91DF910895DF93CF93CDB7DEB727977A
:101E50000FB6F894DEBF0FBECDBF8B836C831A82A2
:101E600019828C81883028F081E0898329812F8331
:101E70008BC08B81843028F082E0898339813F8355
:101E800083C08B81482F50E05E834D838D819E817E
:101E90008130910579F12D813E812230310534F474
:101EA0004D815E814115510569F06BC08D819E8128
:101EB00082309105B9F12D813E812330310509F43D
:101EC00049C05FC0E9E3F0E08081282F30E08C81D9
:101ED000882F90E0A90102C0559547958A95E2F7B1
:101EE000CA0181709070882319F081E08A8349C00B
:101EF0001A8247C0E6E3F0E08081282F30E08C8131
:101F0000882F90E0A90102C0559547958A95E2F780
:101F1000CA0181709070882319F081E08A8331C0F2
:101F20001A822FC0E3E3F0E08081282F30E08C811B
:101F3000882F90E0A90102C0559547958A95E2F750
:101F4000CA0181709070882319F081E08A8319C0DA
:101F50001A8217C0E0E3F0E08081282F30E08C8106
:101F6000882F90E0A90102C0559547958A95E2F720
:101F7000CA0181709070882319F081E08A8301C0C2
:101F80001A8219825A815F838F8127960FB6F8943F
:101F9000DEBF0FBECDBFCF91DF910895DF93CF930A
:101FA00000D000D00F92CDB7DEB78A836B83198241
:101FB0008A81843018F082E089833CC08B81882339
:101FC00031F08B818F3F19F083E0898333C08A81A0
:101FD000282F30E03D832C838C819D8181309105B9
:101FE000D1F02C813D81223031052CF48C819D81F2
:101FF000009761F01EC02C813D812230310581F0B7
:102000008C819D818330910581F013C0EAE3F0E07B
:102010008B8180830EC0E7E3F0E08B81808309C071
:10202000E4E3F0E08B81808304C0E1E3F0E08B81A6
:102030008083198289810F900F900F900F900F90DD
:10204000CF91DF910895DF93CF9300D000D00F920E
:10205000CDB7DEB78A836B8319828A81843018F00A
:1020600082E0898333C08A81282F30E03D832C832E
:102070008C819D8181309105D1F02C813D81223070
:1020800031052CF48C819D81009761F01EC02C815C
:102090003D812230310581F08C819D818330910515
:1020A00081F013C0EBE3F0E08B8180830EC0E8E3A6
:1020B000F0E08B81808309C0E5E3F0E08B818083D1
:1020C00004C0E2E3F0E08B818083198289810F9064
:1020D0000F900F900F900F90CF91DF910895DF93A5
:1020E000CF9300D000D00F92CDB7DEB78B831A828A
:1020F00019828B81843018F082E0898332C08B8111
:10210000282F30E03D832C838C819D818130910587
:10211000D1F02C813D81223031052CF48C819D81C0
:10212000009761F01EC02C813D812230310581F085
:102130008C819D818330910581F013C0E9E3F0E04B
:1021400080818A830EC0E6E3F0E080818A8309C043
:10215000E3E3F0E080818A8304C0E0E3F0E0808183
:102160008A838A810F900F900F900F900F90CF91DC
:10217000DF910895DF93CF93CDB7DEB7ABE5B0E045
:10218000EBE5F0E0808180648C9383E062E040E0E6
:102190000E949D0CA5E5B0E0E5E5F0E0808182605D
:1021A0008C93A5E5B0E0E5E5F0E0808181608C935B
:1021B000ABE5B0E0EBE5F0E080818F778C93ABE5A9
:1021C000B0E0EBE5F0E080818F7D8C93AFE5B0E08F
:1021D000EFE5F0E0808180688C93CF91DF910895E6
:1021E000DF93CF93CDB7DEB7ABE5B0E0EBE5F0E042
:1021F00080818F7B8C93AFE5B0E0EFE5F0E08081EC
:102200008F778C93CF91DF910895DF93CF9300D098
:10221000CDB7DEB79A83898389819A8190936901CA
:10222000809368010F900F90CF91DF910895DF9315
:10223000CF93CDB7DEB7A7E2B0E0E7E2F0E0808170
:1022400080648C93A7E2B0E0E7E2F0E080818F77D2
:102250008C93A7E2B0E0E7E2F0E080818F7D8C9381
:10226000A7E2B0E0E7E2F0E080818F7E8C93A7E206
:10227000B0E0E7E2F0E08081877F8C93A7E2B0E0F6
:10228000E7E2F0E080818B7F8C93A7E2B0E0E7E2A9
:10229000F0E080818D7F8C93A7E2B0E0E7E2F0E090
:1022A00080818E7F8C93A6E2B0E0E6E2F0E0808150
:1022B00080688C93A6E2B0E0E6E2F0E08081877F60
:1022C0008C93A6E2B0E0E6E2F0E080818F7D8C9313
:1022D000A6E2B0E0E6E2F0E0808184608C93A6E2C2
:1022E000B0E0E6E2F0E0808182608C93A6E2B0E0AC
:1022F000E6E2F0E0808181608C93CF91DF910895D8
:10230000DF93CF930F92CDB7DEB78983A7E2B0E01A
:10231000E7E2F0E08081807E8C93898187708983F9
:10232000A7E2B0E0E7E2F0E090818981892B8C930D
:10233000A6E2B0E0E6E2F0E0808180648C93E6E221
:10234000F0E08081882F90E0807190700097B9F361
:10235000A6E2B0E0E6E2F0E0808180618C93E4E206
:10236000F0E0808191810F90CF91DF910895DF930C
:10237000CF9300D0CDB7DEB78A8319828A818430AB
:1023800018F082E0898315C08A8160E041E00E94F4
:102390009D0C8A8161E041E00E949D0C8A8162E08F
:1023A00041E00E949D0C8A8163E041E00E949D0C07
:1023B000198289810F900F90CF91DF910895DF935B
:1023C000CF9300D000D00F92CDB7DEB78A836B8356
:1023D00019828A81843018F082E0898324C18B813C
:1023E000282F30E03D832C838C819D8184309105A2
:1023F00009F49BC02C813D8125303105ECF48C81A2
:102400009D818130910509F451C02C813D8122309C
:1024100031052CF48C819D81009799F103C12C81A9
:102420003D812230310509F456C08C819D81833075
:10243000910509F465C0F6C02C813D812730310536
:1024400009F4B2C08C819D81883091056CF42C8197
:102450003D812530310509F47DC08C819D81863018
:10246000910509F48CC0DEC02C813D8128303105F6
:1024700009F4AFC08C819D818930910509F4BEC0FB
:10248000D1C08A8160E040E00E94990D8A8161E0BC
:1024900040E00E94990D8A8162E040E00E94990D1F
:1024A0008A8163E040E00E94990DBCC08A8160E0AF
:1024B00041E00E94990D8A8161E040E00E94990DFF
:1024C0008A8162E040E00E94990D8A8163E040E0E9
:1024D0000E94990DA7C08A8160E040E00E94990D9A
:1024E0008A8161E041E00E94990D8A8162E040E0CA
:1024F0000E94990D8A8163E040E00E94990D92C08C
:102500008A8160E041E00E94990D8A8161E041E0AA
:102510000E94990D8A8162E040E00E94990D8A81B3
:1025200063E040E00E94990D7DC08A8160E040E058
:102530000E94990D8A8161E040E00E94990D8A8194
:1025400062E041E00E94990D8A8163E040E00E94D0
:10255000990D68C08A8160E041E00E94990D8A81EE
:1025600061E040E00E94990D8A8162E041E00E94B2
:10257000990D8A8163E040E00E94990D53C08A81E1
:1025800060E040E00E94990D8A8161E041E00E9494
:10259000990D8A8162E041E00E94990D8A8163E091
:1025A00040E00E94990D3EC08A8160E041E00E94B7
:1025B000990D8A8161E041E00E94990D8A8162E073
:1025C00041E00E94990D8A8163E040E00E94990DEC
:1025D00029C08A8160E040E00E94990D8A8161E013
:1025E00040E00E94990D8A8162E040E00E94990DCE
:1025F0008A8163E041E00E94990D14C08A8160E005
:1026000041E00E94990D8A8161E040E00E94990DAD
:102610008A8162E040E00E94990D8A8163E041E096
:102620000E94990D198289810F900F900F900F9041
:102630000F90CF91DF910895DF93CF9300D0CDB766
:10264000DEB71A82198282E00E9480118983898113
:10265000882F90E0A0E0B0E02EEE32E040E050E0C5
:10266000BC01CD010E949B1FDC01CB01BC01CD014F
:102670000E943705DC01CB01BC01CD0120E030ED2B
:102680004FEB54E40E941903DC01CB01BC01CD01E6
:102690000E944900DC01CB018A838A810F900F9050
:1026A000CF91DF910895DF93CF9300D00F92CDB7F4
:1026B000DEB78A836B8319828B81883018F081E0C2
:1026C00089830CC08A81843018F082E0898306C037
:1026D0008A816B8141E00E949D0C198289810F9053
:1026E0000F900F90CF91DF910895DF93CF9300D09B
:1026F0000F92CDB7DEB78A836B8319828B818830C6
:1027000018F081E089830CC08A81843018F082E05F
:10271000898306C08A816B8141E00E94990D1982EC
:1027200089810F900F900F90CF91DF910895DF93E3
:10273000CF9300D00F92CDB7DEB78A836B83198217
:102740008B81883018F081E089830CC08A818430C5
:1027500018F082E0898306C08A816B8140E00E9484
:10276000990D198289810F900F900F90CF91DF9171
:102770000895DF93CF9300D00F92CDB7DEB78A8351
:102780006B8319828B81883018F081E089830BC0BC
:102790008A81843018F082E0898305C08A816B8148
:1027A0000E94950E198289810F900F900F90CF9102
:1027B000DF910895DF93CF93CDB7DEB72E970FB695
:1027C000F894DEBF0FBECDBF80E061E041E00E9423
:1027D0009D0C80E062E041E00E949D0C80E090E072
:1027E000A0EAB1E48B879C87AD87BE876B857C852B
:1027F0008D859E8520E030E04AE753E40E941F0269
:10280000DC01CB018F839887A987BA876F81788590
:1028100089859A8520E030E040E85FE30E94550416
:1028200088232CF481E090E09E838D833FC06F81EC
:10283000788589859A8520E03FEF4FE757E40E942D
:10284000F50318164CF56B857C858D859E8520E0FB
:1028500030E040E251E40E941F02DC01CB01BC01E8
:10286000CD010E944900DC01CB019E838D830FC006
:1028700089E190E09C838B838B819C810197F1F7A8
:102880009C838B838D819E8101979E838D838D8117
:102890009E81009769F714C06F81788589859A8534
:1028A0000E944900DC01CB019E838D838D819E8136
:1028B0009A83898389819A810197F1F79A83898321
:1028C00080E063E041E00E949D0C80E064E041E034
:1028D0000E949D0C80E065E041E00E949D0C80E03C
:1028E00066E041E00E949D0C83E30E948C1482E329
:1028F0000E948C1488E20E948C148CE00E948C143C
:1029000081E00E948C142E960FB6F894DEBF0FBEA5
:10291000CDBFCF91DF9108950F931F93DF93CF9396
:10292000CDB7DEB7C356D0400FB6F894DEBF0FBEAA
:10293000CDBFFE01ED59FF4F808380E061E040E0B4
:102940000E94990DFE01E15AFF4F80E090E0A0E85F
:10295000BFE380839183A283B3838E01055A1F4F07
:10296000FE01E15AFF4F608171818281938120E0F5
:1029700030E04AE753E40E941F02DC01CB01F8017A
:1029800080839183A283B383FE01E55AFF4F608168
:1029900071818281938120E030E040E85FE30E9412
:1029A0005504882344F4FE01E75AFF4F81E090E08C
:1029B0009183808364C0FE01E55AFF4F608171817D
:1029C0008281938120E03FEF4FE757E40E94F503B7
:1029D00018160CF043C0FE01E15AFF4F608171816F
:1029E0008281938120E030E040E251E40E941F02A6
:1029F000DC01CB018E01075A1F4FBC01CD010E94A3
:102A00004900DC01CB01F801918380831FC0FE01E6
:102A1000E95AFF4F89E190E091838083FE01E95AF2
:102A2000FF4F808191810197F1F7FE01E95AFF4F35
:102A300091838083DE01A75ABF4FFE01E75AFF4F03
:102A400080819181019711969C938E93FE01E75AA4
:102A5000FF4F808191810097D1F627C08E01075AE0
:102A60001F4FFE01E55AFF4F608171818281938182
:102A70000E944900DC01CB01F80191838083DE01D3
:102A8000AB5ABF4FFE01E75AFF4F808191818D9372
:102A90009C93FE01EB5AFF4F808191810197F1F7E2
:102AA000FE01EB5AFF4F9183808380E062E041E0BA
:102AB0000E94990DFE01EF5AFF4F80E090E0A0E8E0
:102AC000BFE380839183A283B3838E01035B1F4F97
:102AD000FE01EF5AFF4F608171818281938120E076
:102AE00030E04AE753E40E941F02DC01CB01F80109
:102AF00080839183A283B383FE01E35BFF4F6081F8
:102B000071818281938120E030E040E85FE30E94A0
:102B10005504882344F4FE01E55BFF4F81E090E01B
:102B20009183808364C0FE01E35BFF4F608171810C
:102B30008281938120E03FEF4FE757E40E94F50345
:102B400018160CF043C0FE01EF5AFF4F60817181EF
:102B50008281938120E030E040E251E40E941F0234
:102B6000DC01CB018E01055B1F4FBC01CD010E9432
:102B70004900DC01CB01F801918380831FC0FE0175
:102B8000E75BFF4F89E190E091838083FE01E75B83
:102B9000FF4F808191810197F1F7FE01E75BFF4FC5
:102BA00091838083DE01A55BBF4FFE01E55BFF4F94
:102BB00080819181019711969C938E93FE01E55B34
:102BC000FF4F808191810097D1F627C08E01055B70
:102BD0001F4FFE01E35BFF4F608171818281938112
:102BE0000E944900DC01CB01F80191838083DE0162
:102BF000A95BBF4FFE01E55BFF4F808191818D9303
:102C00009C93FE01E95BFF4F808191810197F1F771
:102C1000FE01E95BFF4F91838083FE01ED59FF4F79
:102C2000808182958F70982F917080E063E0492FAA
:102C30000E94990DFE01ED59FF4F80818295869586
:102C40008770982F917080E064E0492F0E94990D61
:102C5000FE01ED59FF4F80818295869586958370A0
:102C6000982F917080E065E0492F0E94990DFE0138
:102C7000ED59FF4F8081982F991F9927991F80E068
:102C800066E0492F0E94990DFE01ED5BFF4F80E049
:102C900090E0A0E8BFE380839183A283B3838E0199
:102CA000015C1F4FFE01ED5BFF4F608171818281EE
:102CB000938120E030E04AE753E40E941F02DC01E8
:102CC000CB01F80180839183A283B383FE01FF9639
:102CD000608171818281938120E030E040E85FE390
:102CE0000E94550488232CF481E090E09EAF8DAFC4
:102CF00046C0FE01FF96608171818281938120E050
:102D00003FEF4FE757E40E94F503181664F5FE0104
:102D1000ED5BFF4F608171818281938120E030E023
:102D200040E251E40E941F02DC01CB01BC01CD0155
:102D30000E944900DC01CB019EAF8DAF0FC089E13D
:102D400090E09CAF8BAF8BAD9CAD0197F1F79CAF42
:102D50008BAF8DAD9EAD01979EAF8DAF8DAD9EAD0E
:102D6000009769F716C0FE01FF966081718182812C
:102D700093810E944900DC01CB019EAF8DAF8DADE8
:102D80009EAD9AAF89AF89AD9AAD0197F1F79AAF31
:102D900089AF80E062E040E00E94990D80E090E021
:102DA000A0E8BFE38DAB9EABAFABB8AF6DA97EA97A
:102DB0008FA998AD20E030E04AE753E40E941F025B
:102DC000DC01CB0189AB9AABABABBCAB69A97AA9EF
:102DD0008BA99CA920E030E040E85FE30E94550405
:102DE00088232CF481E090E098AB8FA73FC069A9BD
:102DF0007AA98BA99CA920E03FEF4FE757E40E94F6
:102E0000F50318164CF56DA97EA98FA998AD20E0A1
:102E100030E040E251E40E941F02DC01CB01BC0122
:102E2000CD010E944900DC01CB0198AB8FA70FC0F8
:102E300089E190E09EA78DA78DA59EA50197F1F74A
:102E40009EA78DA78FA598A9019798AB8FA78FA54F
:102E500098A9009769F714C069A97AA98BA99CA9B8
:102E60000E944900DC01CB0198AB8FA78FA598A9E0
:102E70009CA78BA78BA59CA50197F1F79CA78BA777
:102E800080E062E041E00E94990D80E090E0A0E8DF
:102E9000BFE38FA398A7A9A7BAA76FA178A589A513
:102EA0009AA520E030E04AE753E40E941F02DC01CB
:102EB000CB018BA39CA3ADA3BEA36BA17CA18DA1D1
:102EC0009EA120E030E040E85FE30E9455048823A3
:102ED0002CF481E090E09AA389A33FC06BA17CA170
:102EE0008DA19EA120E03FEF4FE757E40E94F5033C
:102EF00018164CF56FA178A589A59AA520E030E0B9
:102F000040E251E40E941F02DC01CB01BC01CD0173
:102F10000E944900DC01CB019AA389A30FC089E17B
:102F200090E098A38F8F8F8D98A10197F1F798A3C8
:102F30008F8F89A19AA101979AA389A389A19AA1A8
:102F4000009769F714C06BA17CA18DA19EA10E947E
:102F50004900DC01CB019AA389A389A19AA19E8F84
:102F60008D8F8D8D9E8D0197F1F79E8F8D8FFE0138
:102F7000ED59FF4F8081982F917080E063E0492FD9
:102F80000E94990DFE01ED59FF4F80818695982F83
:102F9000917080E064E0492F0E94990DFE01ED5987
:102FA000FF4F808186958695982F917080E065E02F
:102FB000492F0E94990DFE01ED59FF4F80818695A2
:102FC00086958695982F917080E066E0492F0E9443
:102FD000990D80E090E0A0E8BFE3898F9A8FAB8FD6
:102FE000BC8F698D7A8D8B8D9C8D20E030E04AE717
:102FF00053E40E941F02DC01CB018D8B9E8BAF8BB3
:10300000B88F6D897E898F89988D20E030E040E807
:103010005FE30E94550488232CF481E090E09C8BB0
:103020008B8B3FC06D897E898F89988D20E03FEF23
:103030004FE757E40E94F50318164CF5698D7A8D19
:103040008B8D9C8D20E030E040E251E40E941F0215
:10305000DC01CB01BC01CD010E944900DC01CB01A8
:103060009C8B8B8B0FC089E190E09A8B898B89892F
:103070009A890197F1F79A8B898B8B899C890197A3
:103080009C8B8B8B8B899C89009769F714C06D8909
:103090007E898F89988D0E944900DC01CB019C8B31
:1030A0008B8B8B899C89988B8F878F8598890197CB
:1030B000F1F7988B8F8780E062E040E00E94990DE5
:1030C00080E090E0A0E8BFE38B879C87AD87BE8758
:1030D0006B857C858D859E8520E030E04AE753E452
:1030E0000E941F02DC01CB018F839887A987BA87D2
:1030F0006F81788589859A8520E030E040E85FE33C
:103100000E94550488232CF481E090E09E838D83F7
:103110003FC06F81788589859A8520E03FEF4FE732
:1031200057E40E94F50318164CF56B857C858D8558
:103130009E8520E030E040E251E40E941F02DC0165
:10314000CB01BC01CD010E944900DC01CB019E8373
:103150008D830FC089E190E09C838B838B819C8160
:103160000197F1F79C838B838D819E8101979E83CC
:103170008D838D819E81009769F714C06F8178855A
:1031800089859A850E944900DC01CB019E838D834D
:103190008D819E819A83898389819A810197F1F734
:1031A0009A838983CD59DF4F0FB6F894DEBF0FBEE7
:1031B000CDBFCF91DF911F910F9108950F931F9372
:1031C000DF93CF93CDB7DEB7C356D0400FB6F89498
:1031D000DEBF0FBECDBFFE01ED59FF4F808380E003
:1031E00061E041E00E94990DFE01E15AFF4F80E04D
:1031F00090E0A0E8BFE380839183A283B3838E0134
:10320000055A1F4FFE01E15AFF4F60817181828193
:10321000938120E030E04AE753E40E941F02DC0182
:10322000CB01F80180839183A283B383FE01E55A29
:10323000FF4F608171818281938120E030E040E81E
:103240005FE30E945504882344F4FE01E75AFF4FD0
:1032500081E090E09183808364C0FE01E55AFF4FD6
:10326000608171818281938120E03FEF4FE757E4D5
:103270000E94F50318160CF043C0FE01E15AFF4FFF
:10328000608171818281938120E030E040E251E4ED
:103290000E941F02DC01CB018E01075A1F4FBC01A7
:1032A000CD010E944900DC01CB01F80191838083AC
:1032B0001FC0FE01E95AFF4F89E190E091838083AE
:1032C000FE01E95AFF4F808191810197F1F7FE01DC
:1032D000E95AFF4F91838083DE01A75ABF4FFE0159
:1032E000E75AFF4F80819181019711969C938E93AD
:1032F000FE01E75AFF4F808191810097D1F627C0E8
:103300008E01075A1F4FFE01E55AFF4F6081718100
:10331000828193810E944900DC01CB01F8019183F5
:103320008083DE01AB5ABF4FFE01E75AFF4F808119
:1033300091818D939C93FE01EB5AFF4F8081918187
:103340000197F1F7FE01EB5AFF4F9183808380E0F4
:1033500062E041E00E94990DFE01EF5AFF4F80E0CC
:1033600090E0A0E8BFE380839183A283B3838E01C2
:10337000035B1F4FFE01EF5AFF4F60817181828115
:10338000938120E030E04AE753E40E941F02DC0111
:10339000CB01F80180839183A283B383FE01E35BB9
:1033A000FF4F608171818281938120E030E040E8AD
:1033B0005FE30E945504882344F4FE01E55BFF4F60
:1033C00081E090E09183808364C0FE01E35BFF4F66
:1033D000608171818281938120E03FEF4FE757E464
:1033E0000E94F50318160CF043C0FE01EF5AFF4F80
:1033F000608171818281938120E030E040E251E47C
:103400000E941F02DC01CB018E01055B1F4FBC0136
:10341000CD010E944900DC01CB01F801918380833A
:103420001FC0FE01E75BFF4F89E190E0918380833D
:10343000FE01E75BFF4F808191810197F1F7FE016B
:10344000E75BFF4F91838083DE01A55BBF4FFE01E9
:10345000E55BFF4F80819181019711969C938E933C
:10346000FE01E55BFF4F808191810097D1F627C077
:103470008E01055B1F4FFE01E35BFF4F6081718191
:10348000828193810E944900DC01CB01F801918384
:103490008083DE01A95BBF4FFE01E55BFF4F8081AA
:1034A00091818D939C93FE01E95BFF4F8081918117
:1034B0000197F1F7FE01E95BFF4F91838083FE01E5
:1034C000ED59FF4F808182958F70982F917080E029
:1034D00063E0492F0E94990DFE01ED59FF4F808155
:1034E000829586958770982F917080E064E0492FCF
:1034F0000E94990DFE01ED59FF4F808182958695BE
:1035000086958370982F917080E065E0492F0E9426
:10351000990DFE01ED59FF4F8081982F991F992732
:10352000991F80E066E0492F0E94990DFE01ED5B36
:10353000FF4F80E090E0A0E8BFE380839183A28307
:10354000B3838E01015C1F4FFE01ED5BFF4F608175
:1035500071818281938120E030E04AE753E40E9448
:103560001F02DC01CB01F80180839183A283B38326
:10357000FE01FF96608171818281938120E030E0BD
:1035800040E85FE30E94550488232CF481E090E03A
:103590009EAF8DAF46C0FE01FF9660817181828132
:1035A000938120E03FEF4FE757E40E94F5031816A0
:1035B00064F5FE01ED5BFF4F608171818281938133
:1035C00020E030E040E251E40E941F02DC01CB0128
:1035D000BC01CD010E944900DC01CB019EAF8DAF43
:1035E0000FC089E190E09CAF8BAF8BAD9CAD019794
:1035F000F1F79CAF8BAF8DAD9EAD01979EAF8DAFB8
:103600008DAD9EAD009769F716C0FE01FF966081F3
:103610007181828193810E944900DC01CB019EAFC0
:103620008DAF8DAD9EAD9AAF89AF89AD9AAD019743
:10363000F1F79AAF89AF80E062E040E00E94990D17
:1036400080E090E0A0E8BFE38DAB9EABAFABB8AF3E
:103650006DA97EA98FA998AD20E030E04AE753E438
:103660000E941F02DC01CB0189AB9AABABABBCABB8
:1036700069A97AA98BA99CA920E030E040E85FE322
:103680000E94550488232CF481E090E098AB8FA72A
:103690003FC069A97AA98BA99CA920E03FEF4FE719
:1036A00057E40E94F50318164CF56DA97EA98FA961
:1036B00098AD20E030E040E251E40E941F02DC01BE
:1036C000CB01BC01CD010E944900DC01CB0198ABCC
:1036D0008FA70FC089E190E09EA78DA78DA59EA51D
:1036E0000197F1F79EA78DA78FA598A9019798AB91
:1036F0008FA78FA598A9009769F714C069A97AA91F
:103700008BA99CA90E944900DC01CB0198AB8FA733
:103710008FA598A99CA78BA78BA59CA50197F1F7CE
:103720009CA78BA780E062E041E00E94990D80E0B9
:1037300090E0A0E8BFE38FA398A7A9A7BAA76FA1BD
:1037400078A589A59AA520E030E04AE753E40E94D5
:103750001F02DC01CB018BA39CA3ADA3BEA36BA175
:103760007CA18DA19EA120E030E040E85FE30E94B3
:10377000550488232CF481E090E09AA389A33FC0EC
:103780006BA17CA18DA19EA120E03FEF4FE757E404
:103790000E94F50318164CF56FA178A589A59AA586
:1037A00020E030E040E251E40E941F02DC01CB0146
:1037B000BC01CD010E944900DC01CB019AA389A381
:1037C0000FC089E190E098A38F8F8F8D98A101970A
:1037D000F1F798A38F8F89A19AA101979AA389A342
:1037E00089A19AA1009769F714C06BA17CA18DA152
:1037F0009EA10E944900DC01CB019AA389A389A163
:103800009AA19E8F8D8F8D8D9E8D0197F1F79E8F42
:103810008D8FFE01ED59FF4F8081982F917080E0D0
:1038200063E0492F0E94990DFE01ED59FF4F808101
:103830008695982F917080E064E0492F0E94990D41
:10384000FE01ED59FF4F808186958695982F9170E6
:1038500080E065E0492F0E94990DFE01ED59FF4F70
:103860008081869586958695982F917080E066E098
:10387000492F0E94990D80E090E0A0E8BFE3898F76
:103880009A8FAB8FBC8F698D7A8D8B8D9C8D20E04C
:1038900030E04AE753E40E941F02DC01CB018D8B2C
:1038A0009E8BAF8BB88F6D897E898F89988D20E034
:1038B00030E040E85FE30E94550488232CF481E067
:1038C00090E09C8B8B8B3FC06D897E898F89988D12
:1038D00020E03FEF4FE757E40E94F50318164CF540
:1038E000698D7A8D8B8D9C8D20E030E040E251E433
:1038F0000E941F02DC01CB01BC01CD010E944900E6
:10390000DC01CB019C8B8B8B0FC089E190E09A8B03
:10391000898B89899A890197F1F79A8B898B8B8991
:103920009C8901979C8B8B8B8B899C89009769F76D
:1039300014C06D897E898F89988D0E944900DC01B1
:10394000CB019C8B8B8B8B899C89988B8F878F85E8
:1039500098890197F1F7988B8F8780E062E040E0CB
:103960000E94990D80E090E0A0E8BFE38B879C87E0
:10397000AD87BE876B857C858D859E8520E030E098
:103980004AE753E40E941F02DC01CB018F83988732
:10399000A987BA876F81788589859A8520E030E08C
:1039A00040E85FE30E94550488232CF481E090E016
:1039B0009E838D833FC06F81788589859A8520E0BD
:1039C0003FEF4FE757E40E94F50318164CF56B855F
:1039D0007C858D859E8520E030E040E251E40E94A8
:1039E0001F02DC01CB01BC01CD010E944900DC01BA
:1039F000CB019E838D830FC089E190E09C838B83F4
:103A00008B819C810197F1F79C838B838D819E81B3
:103A100001979E838D838D819E81009769F714C0E5
:103A20006F81788589859A850E944900DC01CB01E8
:103A30009E838D838D819E819A83898389819A81DA
:103A40000197F1F79A838983CD59DF4F0FB6F89428
:103A5000DEBF0FBECDBFCF91DF911F910F910895B3
:103A6000DF93CF9300D00F92CDB7DEB79B838A83CD
:103A700019820EC08981282F30E08A819B81FC0148
:103A8000E20FF31F80810E94DE1889818F5F898396
:103A90008981282F30E08A819B81FC01E20FF31F8E
:103AA0008081882339F70F900F900F90CF91DF918D
:103AB0000895DF93CF9300D000D00F92CDB7DEB73B
:103AC0008A836B838A81282F30E03D832C838C810D
:103AD0009D8181309105C1F02C813D8122303105DD
:103AE0002CF48C819D81009761F019C02C813D815F
:103AF0002230310569F08C819D818330910561F020
:103B00000EC08B8189830BC08B81805C898307C049
:103B10008B81805F898303C08B81805B89838981EE
:103B200080680E948C140F900F900F900F900F9050
:103B3000CF91DF910895DF93CF9300D000D0CDB720
:103B4000DEB789836A835C834B8389816A810E94A3
:103B5000591D8B819C810E94301D0F900F900F90FA
:103B60000F90CF91DF910895DF93CF93CDB7DEB75C
:103B700062970FB6F894DEBF0FBECDBF9A8B898BCC
:103B800089899A899E012F5F3F4FB9014AE050E031
:103B90000E941320CE0101960E94301D62960FB63E
:103BA000F894DEBF0FBECDBFCF91DF910895DF93B4
:103BB000CF93CDB7DEB781E00E948C14CF91DF9117
:103BC0000895DF93CF93CDB7DEB781E064E040E0A6
:103BD0000E949D0C81E065E040E00E949D0C81E028
:103BE00066E040E00E949D0C81E067E040E00E94BA
:103BF0009D0C81E060E040E00E949D0C81E061E06E
:103C000040E00E949D0C81E062E040E00E949D0C3B
:103C1000CF91DF910895DF93CF9300D0CDB7DEB77A
:103C20001A823AC08A81982F9C5F81E0692F41E017
:103C30000E949D0C8A81982F9C5F81E0692F40E053
:103C40000E94990D19821AC081E069810E94230F98
:103C5000882389F48A81282F30E0C901880F991FB1
:103C6000820F931F982F8981890F8F5F0F900F907C
:103C7000CF91DF91089589818F5F89838981833016
:103C800018F38A81982F9C5F81E0692F40E00E94A1
:103C90009D0C8A818F5F8A838A81843018F2C0CF1D
:103CA000DF93CF9300D000D00F92CDB7DEB79B83C8
:103CB0008A836C830E94360C0E948E0C883011F02F
:103CC0001D822AC08A819B8180709770880F892FFE
:103CD000881F990B9195806A898389810E94510C74
:103CE0000E948E0C883111F01D8216C08A810E94BC
:103CF000510C0E948E0C883211F01D820DC08C81F7
:103D00000E94510C0E948E0C883211F01D8204C05A
:103D10000E94460C81E08D838D810F900F900F9053
:103D20000F900F90CF91DF910895DF93CF9300D044
:103D300000D000D0CDB7DEB79B838A837D836C83B0
:103D40000E94360C0E948E0C883011F01E823EC0FC
:103D50008A819B8180709770880F892F881F990BAB
:103D60009195806A898389810E94510C0E948E0CF2
:103D7000883111F01E822AC08A810E94510C0E9453
:103D80008E0C883211F01E8221C00E94360C0E94D7
:103D90008E0C803111F01E8219C0898181600E94D1
:103DA000510C0E948E0C803411F01E820FC00E94B4
:103DB0007B0CEC81FD8180830E948E0C883511F094
:103DC0001E8204C00E94460C81E08E838E8126965E
:103DD0000FB6F894DEBF0FBECDBFCF91DF9108952F
:103DE000DF93CF9300D00F92CDB7DEB78A836B837A
:103DF00019828B81883018F081E089830CC08A8118
:103E0000843018F082E0898306C08A816B8140E0AB
:103E10000E949D0C198289810F900F900F90CF9175
:103E2000DF910895DF93CF9300D00F92CDB7DEB727
:103E30008A836B8319828B81883018F081E08983B3
:103E40000BC08A81843018F082E0898305C08A81A2
:103E50006B810E94230F19828A816B810E94230F3C
:103E60000F900F900F90CF91DF9108951F920F92B6
:103E70000FB60F9211248F939F93AF93BF93EF933D
:103E8000FF93DF93CF93CDB7DEB7E2E5F0E086E0B6
:103E9000808380916A018F5F80936A0180916A01BB
:103EA000843051F4A5E3B0E0E5E3F0E0908181E0F7
:103EB00089278C9310926A01CF91DF91FF91EF9146
:103EC000BF91AF919F918F910F900FBE0F901F9058
:103ED0001895DF93CF93CDB7DEB7E2E5F0E086E04B
:103EE0008083A9E5B0E0E9E5F0E0808181608C9312
:103EF000E3E5F0E085E88083CF91DF910895DF93DB
:103F0000CF93CDB7DEB7A4E3B0E0E4E3F0E0808187
:103F100081608C93A5E3B0E0E5E3F0E080818E7FE3
:103F20008C93AFE5B0E0EFE5F0E0808180688C93A2
:103F30000E94691FFFCF629FD001739FF001829F93
:103F4000E00DF11D649FE00DF11D929FF00D839F28
:103F5000F00D749FF00D659FF00D9927729FB00DC5
:103F6000E11DF91F639FB00DE11DF91FBD01CF01D8
:103F700011240895A1E21A2EAA1BBB1BFD010DC03E
:103F8000AA1FBB1FEE1FFF1FA217B307E407F50709
:103F900020F0A21BB30BE40BF50B661F771F881FE5
:103FA000991F1A9469F760957095809590959B017B
:103FB000AC01BD01CF0108952F923F924F925F92C5
:103FC0006F927F928F929F92AF92BF92CF92DF9229
:103FD000EF92FF920F931F93CF93DF93CDB7DEB78E
:103FE000CA1BDB0B0FB6F894DEBF0FBECDBF099422
:103FF0002A88398848885F846E847D848C849B8479
:10400000AA84B984C884DF80EE80FD800C811B8186
:10401000AA81B981CE0FD11D0FB6F894DEBF0FBEB5
:10402000CDBFED010895FB019F01E8944230C4F03B
:104030004532B4F44A3029F497FB1EF490958195EB
:104040009F4F642F77270E94C020805D8A330CF039
:10405000895D8193CB010097A1F716F45DE251933E
:104060001082C9010C948E203BD080F09F3740F421
:1040700091110EF44DC060E070E080E89FE3089578
:1040800026F01B16611D711D811D01C01BC08823F8
:1040900071F4772321F09850872B762F07C0662381
:1040A00011F499270DC09051862B70E060E02AF042
:1040B0009A95660F771F881FDAF7880F9695879570
:1040C00097F908959F3F31F0915020F487957795A7
:1040D0006795B795880F911D9695879597F90895DF
:1040E00035D0A0F0BEE7B91788F4BB279F3860F43D
:1040F0001616B11D672F782F8827985FF7CF869502
:1041000077956795B11D93959639C8F30895E8940E
:10411000BB2766277727CB0197F90895DC01FC01BF
:10412000672F71917723E1F7329704C07C916D93EB
:1041300070836291AE17BF07C8F3089557FD90587A
:10414000440F551F59F05F3F71F04795880F97FB5B
:10415000991F61F09F3F79F0879508951216130615
:104160001406551FF2CF4695F1DF08C01616170644
:104170001806991FF1CF8695710561050894089579
:10418000AA1BBB1B51E107C0AA1FBB1FA617B7077D
:1041900010F0A61BB70B881F991F5A95A9F7809599
:0C41A0009095BC01CD010895F894FFCF6C
:1041AC0000000000000000000001020203030303F2
:1041BC0004040404040404040505050505050505AB
:1041CC00050505050505050506060606060606068B
:1041DC000606060606060606060606060606060673
:1041EC00060606060606060607070707070707075B
:1041FC000707070707070707070707070707070743
:10420C000707070707070707070707070707070732
:10421C000707070707070707070707070707070722
:10422C00070707070707070708080808080808080A
:10423C0008080808080808080808080808080808F2
:10424C0008080808080808080808080808080808E2
:10425C0008080808080808080808080808080808D2
:10426C0008080808080808080808080808080808C2
:10427C0008080808080808080808080808080808B2
:10428C0008080808080808080808080808080808A2
:10429C000808080808080808080808080808080892
:0842AC000808080808080808CA
:00000001FF
