:100000000C942A000C9434000C9434000C943400AA
:100010000C9434000C9434000C9434000C94340090
:100020000C9434000C9434000C9434000C94340080
:100030000C9434000C9434000C9434000C94340070
:100040000C9434000C9434000C9434000C94340060
:100050000C94340011241FBECFE5D4E0DEBFCDBF29
:100060000E9474030C949A030C940000DF93CF93C6
:1000700000D000D00F92CDB7DEB789836A834B835F
:100080008A81883008F0D5C08981843008F0D1C0D9
:100090008981282F30E03D832C838C819D818130A4
:1000A000910509F443C02C813D81223031052CF4A7
:1000B0008C819D81009771F0BCC02C813D812230E4
:1000C000310509F45FC08C819D818330910509F46D
:1000D00085C0AFC08B818130A1F4AAE3B0E0EAE330
:1000E000F0E08081482F8A81282F30E081E090E085
:1000F000022E02C0880F991F0A94E2F7842B8C937A
:1001000098C0AAE3B0E0EAE3F0E08081482F8A815A
:10011000282F30E081E090E0022E02C0880F991F66
:100120000A94E2F7809584238C9383C08B8181307D
:10013000A1F4A7E3B0E0E7E3F0E08081482F8A81F3
:10014000282F30E081E090E0022E02C0880F991F36
:100150000A94E2F7842B8C936CC0A7E3B0E0E7E34A
:10016000F0E08081482F8A81282F30E081E090E004
:10017000022E02C0880F991F0A94E2F7809584230B
:100180008C9357C08B818130A1F4A4E3B0E0E4E309
:10019000F0E08081482F8A81282F30E081E090E0D4
:1001A000022E02C0880F991F0A94E2F7842B8C93C9
:1001B00040C0A4E3B0E0E4E3F0E08081482F8A810E
:1001C000282F30E081E090E0022E02C0880F991FB6
:1001D0000A94E2F7809584238C932BC08B81813025
:1001E000A1F4A1E3B0E0E1E3F0E08081482F8A814F
:1001F000282F30E081E090E0022E02C0880F991F86
:100200000A94E2F7842B8C9314C0A1E3B0E0E1E3FD
:10021000F0E08081482F8A81282F30E081E090E053
:10022000022E02C0880F991F0A94E2F7809584235A
:100230008C930F900F900F900F900F90CF91DF91B4
:100240000895DF93CF9300D000D00F92CDB7DEB7E3
:1002500089836A834B838A81883008F0D5C089817D
:10026000843008F0D1C08981282F30E03D832C8371
:100270008C819D818130910509F443C02C813D81A1
:10028000223031052CF48C819D81009771F0BCC027
:100290002C813D812230310509F45FC08C819D8124
:1002A0008330910509F485C0AFC08B818130A1F402
:1002B000ABE3B0E0EBE3F0E08081482F8A81282FA8
:1002C00030E081E090E0022E02C0880F991F0A946E
:1002D000E2F7842B8C9398C0ABE3B0E0EBE3F0E063
:1002E0008081482F8A81282F30E081E090E0022E23
:1002F00002C0880F991F0A94E2F7809584238C939B
:1003000083C08B818130A1F4A8E3B0E0E8E3F0E0A2
:100310008081482F8A81282F30E081E090E0022EF2
:1003200002C0880F991F0A94E2F7842B8C936CC04B
:10033000A8E3B0E0E8E3F0E08081482F8A81282F2D
:1003400030E081E090E0022E02C0880F991F0A94ED
:10035000E2F7809584238C9357C08B818130A1F480
:10036000A5E3B0E0E5E3F0E08081482F8A81282F03
:1003700030E081E090E0022E02C0880F991F0A94BD
:10038000E2F7842B8C9340C0A5E3B0E0E5E3F0E016
:100390008081482F8A81282F30E081E090E0022E72
:1003A00002C0880F991F0A94E2F7809584238C93EA
:1003B0002BC08B818130A1F4A2E3B0E0E2E3F0E056
:1003C0008081482F8A81282F30E081E090E0022E42
:1003D00002C0880F991F0A94E2F7842B8C9314C0F3
:1003E000A2E3B0E0E2E3F0E08081482F8A81282F89
:1003F00030E081E090E0022E02C0880F991F0A943D
:10040000E2F7809584238C930F900F900F900F90BC
:100410000F90CF91DF910895DF93CF9300D000D05C
:100420000F92CDB7DEB78A836B8319828B818830B8
:1004300008F084C08A81843008F080C08A81282F27
:1004400030E03D832C834C815D814130510579F151
:100450008C819D818230910534F42C813D81211560
:10046000310569F06BC04C815D8142305105B9F1B5
:100470008C819D818330910509F449C05FC0E9E317
:10048000F0E08081282F30E08B81882F90E0A90157
:1004900002C0559547958A95E2F7CA018170907020
:1004A000882319F081E0898349C0198247C0E6E3B7
:1004B000F0E08081282F30E08B81882F90E0A90127
:1004C00002C0559547958A95E2F7CA0181709070F0
:1004D000882319F081E0898331C019822FC0E3E3BA
:1004E000F0E08081282F30E08B81882F90E0A901F7
:1004F00002C0559547958A95E2F7CA0181709070C0
:10050000882319F081E0898319C0198217C0E0E3BC
:10051000F0E08081282F30E08B81882F90E0A901C6
:1005200002C0559547958A95E2F7CA01817090708F
:10053000882319F081E0898301C0198289810F9095
:100540000F900F900F900F90CF91DF910895DF9350
:10055000CF9300D000D0CDB7DEB789836A8389817D
:10056000843090F58981282F30E03C832B838B8168
:100570009C8181309105D1F02B813C812230310565
:100580002CF48B819C81009761F01EC02B813C81F3
:100590002230310581F08B819C818330910581F07F
:1005A00013C0EAE3F0E08A8180830EC0E7E3F0E065
:1005B0008A81808309C0E4E3F0E08A81808304C0FB
:1005C000E1E3F0E08A8180830F900F900F900F900D
:1005D000CF91DF910895DF93CF9300D000D0CDB7B6
:1005E000DEB789836A838981843090F58981282FD9
:1005F00030E03C832B838B819C8181309105D1F04D
:100600002B813C81223031052CF48B819C81009719
:1006100061F01EC02B813C812230310581F08B813D
:100620009C818330910581F013C0EBE3F0E08A8177
:1006300080830EC0E8E3F0E08A81808309C0E5E3AF
:10064000F0E08A81808304C0E2E3F0E08A81808365
:100650000F900F900F900F90CF91DF910895DF933F
:10066000CF9300D000D0CDB7DEB78A8319828A81BC
:10067000843090F58A81282F30E03C832B838B8156
:100680009C8181309105D1F02B813C812230310554
:100690002CF48B819C81009761F01EC02B813C81E2
:1006A0002230310581F08B819C818330910581F06E
:1006B00013C0E9E3F0E0808189830EC0E6E3F0E057
:1006C0008081898309C0E3E3F0E08081898304C0ED
:1006D000E0E3F0E08081898389810F900F900F9093
:1006E0000F90CF91DF910895DF93CF93CDB7DEB711
:1006F00083E062E040E00E94360082E061E041E099
:100700000E94360083E062E00E940C02882331F4EC
:1007100082E061E041E00E942101F4CF83E062E0E9
:100720000E940C02813071F782E061E040E00E949B
:080730002101E8CFF894FFCF8E
:00000001FF
