:100000000C942A000C9434000C9434000C943400AA
:100010000C9434000C9434000C9434000C94340090
:100020000C9434000C9434000C9434000C94340080
:100030000C9434000C9434000C9434000C94340070
:100040000C9434000C9434000C9434000C94340060
:100050000C94340011241FBECFE5D4E0DEBFCDBF29
:100060000E94DE040C9401050C940000DF93CF93F2
:1000700000D00F92CDB7DEB78A836B8319828B8154
:10008000883018F081E0898310C08A81843018F0AC
:1000900082E089830AC08A816B8141E00E94C100AD
:1000A0008A816FEF0E94E903198289810F900F9076
:1000B0000F90CF91DF910895DF93CF9300D00F92EF
:1000C000CDB7DEB78A836B8319828B81883018F0B5
:1000D00081E089830CC08A81843018F082E08983B2
:1000E00006C08A816B8141E00E94BD01198289812D
:1000F0000F900F900F90CF91DF910895DF93CF93E2
:1001000000D00F92CDB7DEB78A836B8319828B81C3
:10011000883018F081E089830CC08A81843018F01F
:1001200082E0898306C08A816B8140E00E94BD0124
:10013000198289810F900F900F90CF91DF910895D0
:10014000DF93CF9300D00F92CDB7DEB78A836B8356
:1001500019828B81883018F081E089830BC08A81F5
:10016000843018F082E0898305C08A816B810E9407
:10017000B902198289810F900F900F90CF91DF9172
:100180000895DF93CF9300D000D000D0CDB7DEB775
:100190008A836B834C8319828B81883018F081E0CD
:1001A0008983E1C08A81843018F082E08983DBC0D2
:1001B0008C81882319F48C81813019F083E0898344
:1001C000D2C08A81282F30E03E832D838D819E818D
:1001D0008130910509F443C02D813E8122303105E3
:1001E0002CF48D819E81009771F0BCC02D813E81E1
:1001F0002230310509F45FC08D819E8183309105E5
:1002000009F485C0AFC08C818130A1F4AAE3B0E0CD
:10021000EAE3F0E08081482F8B81282F30E081E0F5
:1002200090E0022E02C0880F991F0A94E2F7842BF7
:100230008C9398C0AAE3B0E0EAE3F0E08081482F15
:100240008B81282F30E081E090E0022E02C0880FE1
:10025000991F0A94E2F7809584238C9383C08C8144
:100260008130A1F4A7E3B0E0E7E3F0E08081482F1C
:100270008B81282F30E081E090E0022E02C0880FB1
:10028000991F0A94E2F7842B8C936CC0A7E3B0E02B
:10029000E7E3F0E08081482F8B81282F30E081E078
:1002A00090E0022E02C0880F991F0A94E2F7809511
:1002B00084238C9357C08C818130A1F4A4E3B0E0F7
:1002C000E4E3F0E08081482F8B81282F30E081E04B
:1002D00090E0022E02C0880F991F0A94E2F7842B47
:1002E0008C9340C0A4E3B0E0E4E3F0E08081482FC9
:1002F0008B81282F30E081E090E0022E02C0880F31
:10030000991F0A94E2F7809584238C932BC08C81EB
:100310008130A1F4A1E3B0E0E1E3F0E08081482F77
:100320008B81282F30E081E090E0022E02C0880F00
:10033000991F0A94E2F7842B8C9314C0A1E3B0E0D8
:10034000E1E3F0E08081482F8B81282F30E081E0CD
:1003500090E0022E02C0880F991F0A94E2F7809560
:1003600084238C931982898126960FB6F894DEBF78
:100370000FBECDBFCF91DF910895DF93CF9300D013
:1003800000D000D0CDB7DEB78A836B834C8319824F
:100390008B81883018F081E08983E1C08A818430C4
:1003A00018F082E08983DBC08C81813019F48C8164
:1003B000882319F083E08983D2C08A81282F30E016
:1003C0003E832D838D819E818130910509F443C048
:1003D0002D813E81223031052CF48D819E81009744
:1003E00071F0BCC02D813E812230310509F45FC01F
:1003F0008D819E818330910509F485C0AFC08C81C9
:100400008130A1F4ABE3B0E0EBE3F0E08081482F72
:100410008B81282F30E081E090E0022E02C0880F0F
:10042000991F0A94E2F7842B8C9398C0ABE3B0E059
:10043000EBE3F0E08081482F8B81282F30E081E0D2
:1004400090E0022E02C0880F991F0A94E2F780956F
:1004500084238C9383C08C818130A1F4A8E3B0E025
:10046000E8E3F0E08081482F8B81282F30E081E0A5
:1004700090E0022E02C0880F991F0A94E2F7842BA5
:100480008C936CC0A8E3B0E0E8E3F0E08081482FF3
:100490008B81282F30E081E090E0022E02C0880F8F
:1004A000991F0A94E2F7809584238C9357C08C811E
:1004B0008130A1F4A5E3B0E0E5E3F0E08081482FCE
:1004C0008B81282F30E081E090E0022E02C0880F5F
:1004D000991F0A94E2F7842B8C9340C0A5E3B0E007
:1004E000E5E3F0E08081482F8B81282F30E081E028
:1004F00090E0022E02C0880F991F0A94E2F78095BF
:1005000084238C932BC08C818130A1F4A2E3B0E0D2
:10051000E2E3F0E08081482F8B81282F30E081E0FA
:1005200090E0022E02C0880F991F0A94E2F7842BF4
:100530008C9314C0A2E3B0E0E2E3F0E08081482FA6
:100540008B81282F30E081E090E0022E02C0880FDE
:10055000991F0A94E2F7809584238C9319828981EC
:1005600026960FB6F894DEBF0FBECDBFCF91DF91B8
:100570000895DF93CF9300D000D00F92CDB7DEB7B0
:100580008A836B8319828B81883018F081E089839C
:1005900075C08A81843018F082E089836FC08A81B7
:1005A000282F30E03D832C838C819D818130910503
:1005B00049F12C813D81223031052CF48C819D81C3
:1005C000009761F05AC02C813D812230310571F1D4
:1005D0008C819D8183309105E9F14FC0ABE3B0E0A0
:1005E000EBE3F0E08081482F8B81282F30E081E021
:1005F00090E0022E02C0880F991F0A94E2F7842728
:100600008C933BC0A8E3B0E0E8E3F0E08081482FA2
:100610008B81282F30E081E090E0022E02C0880F0D
:10062000991F0A94E2F784278C9327C0A5E3B0E0D2
:10063000E5E3F0E08081482F8B81282F30E081E0D6
:1006400090E0022E02C0880F991F0A94E2F78427D7
:100650008C9313C0A2E3B0E0E2E3F0E08081482F86
:100660008B81282F30E081E090E0022E02C0880FBD
:10067000991F0A94E2F784278C93198289810F903D
:100680000F900F900F900F90CF91DF910895DF930F
:10069000CF9300D000D000D0CDB7DEB78B836C8372
:1006A0001A8219828C81883018F081E0898387C092
:1006B0008B81843018F082E0898381C08B81282F60
:1006C00030E03E832D834D815E814130510579F1CB
:1006D0008D819E818230910534F42D813E812115DA
:1006E000310569F06BC04D815E8142305105B9F131
:1006F0008D819E818330910509F449C05FC0E9E393
:10070000F0E08081282F30E08C81882F90E0A901D3
:1007100002C0559547958A95E2F7CA01817090709D
:10072000882319F081E08A8349C01A8247C0E6E332
:10073000F0E08081282F30E08C81882F90E0A901A3
:1007400002C0559547958A95E2F7CA01817090706D
:10075000882319F081E08A8331C01A822FC0E3E335
:10076000F0E08081282F30E08C81882F90E0A90173
:1007700002C0559547958A95E2F7CA01817090703D
:10078000882319F081E08A8319C01A8217C0E0E338
:10079000F0E08081282F30E08C81882F90E0A90143
:1007A00002C0559547958A95E2F7CA01817090700D
:1007B000882319F081E08A8301C01A8219828A8114
:1007C00026960FB6F894DEBF0FBECDBFCF91DF9156
:1007D0000895DF93CF9300D000D00F92CDB7DEB74E
:1007E0008A836B8319828A81843018F082E089833E
:1007F0003CC08B81882319F48B81813019F083E010
:10080000898333C08A81282F30E03D832C838C81FB
:100810009D8181309105D1F02C813D8122303105BF
:100820002CF48C819D81009761F01EC02C813D814C
:100830002230310581F08C819D818330910581F0DA
:1008400013C0EAE3F0E08B8180830EC0E7E3F0E0C1
:100850008B81808309C0E4E3F0E08B81808304C056
:10086000E1E3F0E08B818083198289810F900F9002
:100870000F900F900F90CF91DF910895DF93CF935A
:1008800000D000D00F92CDB7DEB78A836B83198278
:100890008A81843018F082E089833CC08B8181306A
:1008A00019F48B81882319F083E0898333C08A810E
:1008B000282F30E03D832C838C819D8181309105F0
:1008C000D1F02C813D81223031052CF48C819D8129
:1008D000009761F01EC02C813D812230310581F0EE
:1008E0008C819D818330910581F013C0EBE3F0E0B2
:1008F0008B8180830EC0E8E3F0E08B81808309C0A8
:10090000E5E3F0E08B81808304C0E2E3F0E08B81DB
:100910008083198289810F900F900F900F900F9014
:10092000CF91DF910895DF93CF9300D000D00F9245
:10093000CDB7DEB78B831A8219828B81843018F091
:1009400082E0898332C08B81282F30E03D832C8365
:100950008C819D8181309105D1F02C813D812230A7
:1009600031052CF48C819D81009761F01EC02C8193
:100970003D812230310581F08C819D81833091054C
:1009800081F013C0E9E3F0E080818A830EC0E6E3E2
:10099000F0E080818A8309C0E3E3F0E080818A830C
:1009A00004C0E0E3F0E080818A838A810F900F9099
:1009B0000F900F900F90CF91DF910895DF93CF9319
:1009C000CDB7DEB783E062E040E00E94C10082E084
:1009D00061E00E94360083E062E00E9447038823C2
:1009E00029F482E061E00E945C00F5CF83E062E0E0
:1009F0000E944703813079F782E061E00E947E0027
:060A0000EACFF894FFCFDD
:00000001FF
