:100000000C942A000C943F000C943F000C943F0089
:100010000C943F000C943F000C943F000C943F0064
:100020000C943F000C943F000C943F000C943F0054
:100030000C943F000C943F000C943F000C943F0044
:100040000C943F000C943F000C943F000C943F0034
:100050000C943F0011241FBECFE5D4E0DEBFCDBF1E
:1000600010E0A0E6B0E0EEE9F8E102C005900D92E4
:10007000A836B107D9F70E94850A0C944D0C0C9450
:100080000000EF92FF920F931F937B018C0120E001
:1000900030E040E05FE40E94410388238CF0C80117
:1000A000B70120E030E040E05FE40E94B9010E9427
:1000B000A1039B01AC01205030404040504806C095
:1000C000C801B7010E94A1039B01AC01B901CA019B
:1000D0001F910F91FF90EF900895A0E0B0E0E3E74B
:1000E000F0E00C94160CDC012B01FA019C9192308B
:1000F00008F439C1EB018881823008F433C19430AF
:1001000069F4843009F02FC111969C91119789816F
:10011000981709F428C1A0E6B0E025C1843009F49D
:1001200021C18230A9F4923009F01DC19A01AD01BC
:1001300088E0EA010990AE01E90109929E0181502F
:10014000C1F7E201898111969C918923818308C1BD
:10015000923009F407C112962D903C901397EB0151
:100160008A819B811496AD90BD90CD90DC901797BD
:10017000EC80FD800E811F819101281B390BB90194
:1001800037FF04C066277727621B730B6032710547
:100190000CF061C0121613066CF537014801062EEB
:1001A00004C096948794779467940A94D2F721E0D8
:1001B00030E040E050E004C0220F331F441F551FC1
:1001C0006A95D2F721503040404050402E213F21C7
:1001D00040235123211531054105510521F021E02E
:1001E00030E040E050E079018A01E628F72808294C
:1001F00019293CC0232BD1F1260E371E35014601AB
:10020000062E04C096948794779467940A94D2F744
:1002100021E030E040E050E004C0220F331F441FD3
:10022000551F6A95D2F721503040404050402A2156
:100230003B214C215D21211531054105510521F05E
:1002400021E030E040E050E059016A01A628B728DB
:10025000C828D9280BC0821593052CF01C01AA24AC
:10026000BB24650103C0EE24FF24870111969C91F5
:10027000D20111968C91981709F445C0992339F051
:10028000A80197012A193B094C095D0906C0A6017E
:1002900095012E193F09400B510B57FD08C01182E3
:1002A0003382228224833583468357831DC081E0B5
:1002B00081833382228288279927DC01821B930B5A
:1002C000A40BB50B84839583A683B7830DC0220F3F
:1002D000331F441F551F24833583468357838281F0
:1002E000938101979383828324813581468157814D
:1002F000DA01C9010197A109B1098F5F9F4FAF4F83
:10030000BF4328F30BC0918333822282EA0CFB1C8B
:100310000C1D1D1DE482F5820683178383E0808314
:10032000248135814681578157FF1AC0C901AA2708
:1003300097FDA095BA2F81709070A070B0705695FF
:10034000479537952795822B932BA42BB52B848328
:100350009583A683B7838281938101969383828359
:10036000DF0101C0D201CD01CDB7DEB7E2E10C94CF
:10037000320CA0E2B0E0EFEBF1E00C94220C6983C8
:100380007A838B839C832D833E834F835887E9E058
:10039000EE2EF12CEC0EFD1ECE010196B7010E944F
:1003A000CA048E010F5E1F4FCE010596B8010E9450
:1003B000CA048A8991E089278A8BC701B801AE01F6
:1003C000475E5F4F0E946D000E94F503A096E6E035
:1003D0000C943E0CA0E2B0E0E0EFF1E00C94220CB3
:1003E00069837A838B839C832D833E834F835887D5
:1003F000F9E0EF2EF12CEC0EFD1ECE010196B701B7
:100400000E94CA048E010F5E1F4FCE010596B801EF
:100410000E94CA04C701B801AE01475E5F4F0E9447
:100420006D000E94F503A096E6E00C943E0CA0E25D
:10043000B0E0EDE1F2E00C94160C69837A838B83D3
:100440009C832D833E834F835887CE010196BE0146
:10045000675F7F4F0E94CA04CE010596BE016F5EA2
:100460007F4F0E94CA049985923088F08989823032
:10047000C8F0943019F4823051F404C0843029F467
:10048000923081F480E690E0C6C0923049F420E0DA
:100490009A858A89981321E02A87CE010996BBC0E4
:1004A000823049F420E09A858A89981321E02A8BCA
:1004B000CE014196B0C02D843E844F8458886D880B
:1004C0007E888F88988CEE24FF248701AA24BB2481
:1004D000650140E050E060E070E0E0E0F0E0C10184
:1004E00081709070892BE9F0E60CF71C081D191D2E
:1004F0009A01AB012A0D3B1D4C1D5D1D80E090E073
:10050000A0E0B0E0E614F7040805190520F481E046
:1005100090E0A0E0B0E0BA01A901480F591F6A1F9E
:100520007B1FAA0CBB1CCC1CDD1C97FE08C081E005
:1005300090E0A0E0B0E0A82AB92ACA2ADB2A3196C6
:10054000E032F10549F0660C771C881C991C569422
:10055000479437942794C3CFFA85EA892B893C893D
:100560008B859C85280F391F2E5F3F4F17C0CA010E
:1005700081709070892B61F016950795F794E79438
:1005800080E090E0A0E0B0E8E82AF92A0A2B1B2BD3
:1005900076956795579547952F5F3F4F77FDE7CF46
:1005A0000CC0440F551F661F771F17FD4160EE0CEE
:1005B000FF1C001F111F21503040403090E05907B0
:1005C00090E0690790E4790760F32B8F3C8FDB01A3
:1005D000CA018F779070A070B07080349105A1052A
:1005E000B10561F447FD0AC0E114F10401051105EC
:1005F00029F0405C5F4F6F4F7F4F40781A8EFE1797
:1006000011F081E08A8F4D8F5E8F6F8F78A383E02A
:10061000898FCE0149960E94F503A096E2E10C94E1
:10062000320CA8E1B0E0E7E1F3E00C94220C69831E
:100630007A838B839C832D833E834F83588789E005
:10064000E82EF12CEC0EFD1ECE010196B7010E94A2
:10065000CA048E010F5E1F4FCE010596B8010E949D
:10066000CA048985823040F08989823028F0C70128
:10067000B8010E94420501C08FEF6896E6E00C9435
:100680003E0CA8E1B0E0E7E4F3E00C94220C6983AF
:100690007A838B839C832D833E834F83588789E0A5
:1006A000E82EF12CEC0EFD1ECE010196B7010E9442
:1006B000CA048E010F5E1F4FCE010596B8010E943D
:1006C000CA048985823040F08989823028F0C701C8
:1006D000B8010E94420501C08FEF6896E6E00C94D5
:1006E0003E0CA8E1B0E0E7E7F3E00C94220C69834C
:1006F0007A838B839C832D833E834F83588789E045
:10070000E82EF12CEC0EFD1ECE010196B7010E94E1
:10071000CA048E010F5E1F4FCE010596B8010E94DC
:10072000CA048985823040F08989823028F0C70167
:10073000B8010E94420501C081E06896E6E00C9491
:100740003E0CACE0B0E0E7EAF3E00C94260C6983E1
:100750007A838B839C83CE010196BE016B5F7F4FB2
:100760000E94CA048D81823061F1823050F1843060
:1007700021F48E81882351F12EC02F81388537FDD9
:1007800020C06E812F3131051CF06623F9F023C0A3
:100790008EE190E0821B930B29853A854B855C8521
:1007A00004C056954795379527958A95D2F76623C5
:1007B000B1F050954095309521953F4F4F4F5F4F89
:1007C0000EC020E030E040E050E009C02FEF3FEFE6
:1007D0004FEF5FE704C020E030E040E050E8B901AF
:1007E000CA012C96E2E00C94420CDF92EF92FF9249
:1007F0000F931F93FC01E480F58006811781D1805F
:100800008081823048F480E090E0A0E1B0E0E82A06
:10081000F92A0A2B1B2BA5C0843009F49FC0823013
:1008200021F4EE24FF24870105C0E114F104010541
:10083000110519F4E0E0F0E096C0628173819FEF4A
:10084000623879070CF05BC022E83FEF261B370BBC
:100850002A3131052CF020E030E040E050E02AC0A1
:10086000B801A701022E04C0769567955795479564
:100870000A94D2F781E090E0A0E0B0E004C0880FD5
:10088000991FAA1FBB1F2A95D2F70197A109B10989
:100890008E219F21A023B1230097A105B10521F04E
:1008A00081E090E0A0E0B0E09A01AB01282B392B69
:1008B0004A2B5B2BDA01C9018F779070A070B07062
:1008C00080349105A105B10539F427FF09C0205CEA
:1008D0003F4F4F4F5F4F04C0215C3F4F4F4F5F4F23
:1008E000E0E0F0E02030A0E03A07A0E04A07A0E412
:1008F0005A0710F0E1E0F0E079018A0127C0603882
:10090000710564F5FB01E158FF4FD801C7018F77EE
:100910009070A070B07080349105A105B10539F4D4
:10092000E7FE0DC080E490E0A0E0B0E004C08FE3FB
:1009300090E0A0E0B0E0E80EF91E0A1F1B1F17FFB1
:1009400005C016950795F794E794319687E01695BC
:100950000795F794E7948A95D1F705C0EE24FF2414
:100960008701EFEFF0E06E2F679566276795902F70
:100970009F77D794DD24D7948E2F8695492F462BC9
:10098000582F5D29B701CA011F910F91FF90EF9079
:10099000DF900895FC01DB01408151812281622FAB
:1009A0006F7770E0221F2227221F9381892F880FE3
:1009B000822B282F30E0991F9927991F11969C931D
:1009C000119721153105A9F54115510561057105ED
:1009D00011F482E037C082E89FEF13969C938E93C8
:1009E00012979A01AB0167E0220F331F441F551F76
:1009F0006A95D1F783E08C930DC0220F331F441FFB
:100A0000551F12968D919C911397019713969C9365
:100A10008E931297203080E0380780E0480780E40A
:100A2000580758F314962D933D934D935C93179765
:100A300008952F3F310579F4411551056105710580
:100A400019F484E08C93089564FF03C081E08C93D3
:100A500012C01C9210C02F57304013963C932E9317
:100A6000129783E08C9387E0440F551F661F771F12
:100A70008A95D1F7706414964D935D936D937C9332
:100A8000179708951F93DC01FB019C91923008F4A5
:100A900047C08081823008F443C0943051F41196ED
:100AA0001C91843099F58181682F70E0611B710978
:100AB0003FC0843021F0923031F48230B9F181812D
:100AC000882389F12DC011961C9111978230F1F085
:100AD00081811817D9F412962D913C911397828138
:100AE00093818217930794F028173907BCF0149666
:100AF0008D919D910D90BC91A02D248135814681D1
:100B00005781281739074A075B0718F4112341F06A
:100B10000AC082179307A407B50740F4112319F000
:100B200061E070E005C06FEF7FEF02C060E070E051
:100B3000CB011F910895DF93CF9300D00F92CDB7D3
:100B4000DEB78A836B8319828B81883018F081E04D
:100B500089830CC08A81843018F082E0898306C0C2
:100B60008A816B8141E00E942206198289810F905F
:100B70000F900F90CF91DF910895DF93CF9300D026
:100B80000F92CDB7DEB78A836B8319828B81883051
:100B900018F081E089830CC08A81843018F082E0EB
:100BA000898306C08A816B8141E00E941E071982F9
:100BB00089810F900F900F90CF91DF910895DF936F
:100BC000CF9300D00F92CDB7DEB78A836B831982A3
:100BD0008B81883018F081E089830CC08A81843051
:100BE00018F082E0898306C08A816B8140E00E9410
:100BF0001E07198289810F900F900F90CF91DF917E
:100C00000895DF93CF9300D00F92CDB7DEB78A83DC
:100C10006B8319828B81883018F081E089830BC047
:100C20008A81843018F082E0898305C08A816B81D3
:100C30000E941A08198289810F900F900F90CF910E
:100C4000DF910895DF93CF9300D000D000D0CDB7CF
:100C5000DEB78A836B834C8319828B81883018F0CE
:100C600081E08983E1C08A81843018F082E0898341
:100C7000DBC08C81882331F08C81813019F083E0D6
:100C80008983D2C08A81282F30E03E832D838D81D5
:100C90009E818130910509F443C02D813E8122302F
:100CA00031052CF48D819E81009771F0BCC02D819F
:100CB0003E812230310509F45FC08D819E818330F1
:100CC000910509F485C0AFC08C818130A1F4AAE3FD
:100CD000B0E0EAE3F0E08081482F8B81282F30E0FC
:100CE00081E090E0022E02C0880F991F0A94E2F77B
:100CF000842B8C9398C0AAE3B0E0EAE3F0E0808113
:100D0000482F8B81282F30E081E090E0022E02C036
:100D1000880F991F0A94E2F7809584238C9383C0EF
:100D20008C818130A1F4A7E3B0E0E7E3F0E08081BB
:100D3000482F8B81282F30E081E090E0022E02C006
:100D4000880F991F0A94E2F7842B8C936CC0A7E359
:100D5000B0E0E7E3F0E08081482F8B81282F30E07E
:100D600081E090E0022E02C0880F991F0A94E2F7FA
:100D7000809584238C9357C08C818130A1F4A4E3A7
:100D8000B0E0E4E3F0E08081482F8B81282F30E051
:100D900081E090E0022E02C0880F991F0A94E2F7CA
:100DA000842B8C9340C0A4E3B0E0E4E3F0E08081C6
:100DB000482F8B81282F30E081E090E0022E02C086
:100DC000880F991F0A94E2F7809584238C932BC097
:100DD0008C818130A1F4A1E3B0E0E1E3F0E0808117
:100DE000482F8B81282F30E081E090E0022E02C056
:100DF000880F991F0A94E2F7842B8C9314C0A1E307
:100E0000B0E0E1E3F0E08081482F8B81282F30E0D3
:100E100081E090E0022E02C0880F991F0A94E2F749
:100E2000809584238C931982898126960FB6F89435
:100E3000DEBF0FBECDBFCF91DF910895DF93CF937B
:100E400000D000D000D0CDB7DEB78A836B834C834F
:100E500019828B81883018F081E08983E1C08A8112
:100E6000843018F082E08983DBC08C81813031F0DE
:100E70008C81882319F083E08983D2C08A81282F4E
:100E800030E03E832D838D819E818130910509F470
:100E900043C02D813E81223031052CF48D819E810D
:100EA000009771F0BCC02D813E812230310509F4DC
:100EB0005FC08D819E818330910509F485C0AFC0EC
:100EC0008C818130A1F4ABE3B0E0EBE3F0E0808112
:100ED000482F8B81282F30E081E090E0022E02C065
:100EE000880F991F0A94E2F7842B8C9398C0ABE388
:100EF000B0E0EBE3F0E08081482F8B81282F30E0D9
:100F000081E090E0022E02C0880F991F0A94E2F758
:100F1000809584238C9383C08C818130A1F4A8E3D5
:100F2000B0E0E8E3F0E08081482F8B81282F30E0AB
:100F300081E090E0022E02C0880F991F0A94E2F728
:100F4000842B8C936CC0A8E3B0E0E8E3F0E08081F0
:100F5000482F8B81282F30E081E090E0022E02C0E4
:100F6000880F991F0A94E2F7809584238C9357C0C9
:100F70008C818130A1F4A5E3B0E0E5E3F0E080816D
:100F8000482F8B81282F30E081E090E0022E02C0B4
:100F9000880F991F0A94E2F7842B8C9340C0A5E335
:100FA000B0E0E5E3F0E08081482F8B81282F30E02E
:100FB00081E090E0022E02C0880F991F0A94E2F7A8
:100FC000809584238C932BC08C818130A1F4A2E383
:100FD000B0E0E2E3F0E08081482F8B81282F30E001
:100FE00081E090E0022E02C0880F991F0A94E2F778
:100FF000842B8C9314C0A2E3B0E0E2E3F0E08081A4
:10100000482F8B81282F30E081E090E0022E02C033
:10101000880F991F0A94E2F7809584238C93198294
:10102000898126960FB6F894DEBF0FBECDBFCF9153
:10103000DF910895DF93CF9300D000D00F92CDB70A
:10104000DEB78A836B8319828B81883018F081E048
:10105000898375C08A81843018F082E089836FC0EB
:101060008A81282F30E03D832C838C819D818130C3
:10107000910549F12C813D81223031052CF48C8180
:101080009D81009761F05AC02C813D81223031054D
:1010900071F18C819D8183309105E9F14FC0ABE303
:1010A000B0E0EBE3F0E08081482F8B81282F30E027
:1010B00081E090E0022E02C0880F991F0A94E2F7A7
:1010C00084278C933BC0A8E3B0E0E8E3F0E08081A4
:1010D000482F8B81282F30E081E090E0022E02C063
:1010E000880F991F0A94E2F784278C9327C0A5E301
:1010F000B0E0E5E3F0E08081482F8B81282F30E0DD
:1011000081E090E0022E02C0880F991F0A94E2F756
:1011100084278C9313C0A2E3B0E0E2E3F0E0808187
:10112000482F8B81282F30E081E090E0022E02C012
:10113000880F991F0A94E2F784278C93198289817A
:101140000F900F900F900F900F90CF91DF91089517
:10115000DF93CF9300D000D000D0CDB7DEB78B8324
:101160006C831A8219828C81883018F081E089831F
:1011700087C08B81843018F082E0898381C08B81A5
:10118000282F30E03E832D834D815E814130510513
:1011900079F18D819E818230910534F42D813E81DB
:1011A0002115310569F06BC04D815E8142305105DA
:1011B000B9F18D819E818330910509F449C05FC0EA
:1011C000E9E3F0E08081282F30E08C81882F90E0E7
:1011D000A90102C0559547958A95E2F7CA01817029
:1011E0009070882319F081E08A8349C01A8247C031
:1011F000E6E3F0E08081282F30E08C81882F90E0BA
:10120000A90102C0559547958A95E2F7CA018170F8
:101210009070882319F081E08A8331C01A822FC030
:10122000E3E3F0E08081282F30E08C81882F90E08C
:10123000A90102C0559547958A95E2F7CA018170C8
:101240009070882319F081E08A8319C01A8217C030
:10125000E0E3F0E08081282F30E08C81882F90E05F
:10126000A90102C0559547958A95E2F7CA01817098
:101270009070882319F081E08A8301C01A82198254
:101280008A8126960FB6F894DEBF0FBECDBFCF91F0
:10129000DF910895DF93CF9300D000D00F92CDB7A8
:1012A000DEB78A836B8319828A81843018F082E0EA
:1012B00089833CC08B81882331F08B81813019F088
:1012C00083E0898333C08A81282F30E03D832C83DB
:1012D0008C819D8181309105D1F02C813D8122301E
:1012E00031052CF48C819D81009761F01EC02C810A
:1012F0003D812230310581F08C819D8183309105C3
:1013000081F013C0EAE3F0E08B8180830EC0E7E355
:10131000F0E08B81808309C0E4E3F0E08B8180837F
:1013200004C0E1E3F0E08B818083198289810F9012
:101330000F900F900F900F90CF91DF910895DF9352
:10134000CF9300D000D00F92CDB7DEB78A836B83E6
:1013500019828A81843018F082E089833CC08B81B5
:10136000813031F08B81882319F083E0898333C089
:101370008A81282F30E03D832C838C819D818130B0
:101380009105D1F02C813D81223031052CF48C81E6
:101390009D81009761F01EC02C813D812230310576
:1013A00081F08C819D818330910581F013C0EBE346
:1013B000F0E08B8180830EC0E8E3F0E08B818083D6
:1013C00009C0E5E3F0E08B81808304C0E2E3F0E054
:1013D0008B818083198289810F900F900F900F90DD
:1013E0000F90CF91DF910895DF93CF9300D000D07D
:1013F0000F92CDB7DEB78B831A8219828B8184302E
:1014000018F082E0898332C08B81282F30E03D8341
:101410002C838C819D8181309105D1F02C813D817F
:10142000223031052CF48C819D81009761F01EC023
:101430002C813D812230310581F08C819D8183306A
:10144000910581F013C0E9E3F0E080818A830EC04A
:10145000E6E3F0E080818A8309C0E3E3F0E0808185
:101460008A8304C0E0E3F0E080818A838A810F9060
:101470000F900F900F900F90CF91DF910895DF9311
:10148000CF9300D00F92CDB7DEB78A836B831982DA
:101490008B81883018F081E089830CC08A81843088
:1014A00018F082E0898306C08A816B8140E00E9447
:1014B0002206198289810F900F900F90CF91DF91B2
:1014C0000895DF93CF9300D00F92CDB7DEB78A8314
:1014D0006B8319828B81883018F081E089830BC07F
:1014E0008A81843018F082E0898305C08A816B810B
:1014F0000E94A80819828A816B810E94A8080F9017
:101500000F900F90CF91DF910895DF93CF93CDB7D8
:10151000DEB7AA970FB6F894DEBF0FBECDBF82E04C
:1015200060E00E949B0582E061E00E949B0582E0F2
:1015300062E00E949B0582E060E00E94BD0582E0BF
:1015400061E00E94DF0582E062E00E94DF0580E04A
:1015500090E0AAEFB3E48FA398A7A9A7BAA76FA1B9
:1015600078A589A59AA520E030E04AE753E40E94D7
:101570001702DC01CB018BA39CA3ADA3BEA36BA17F
:101580007CA18DA19EA120E030E040E85FE30E94B5
:10159000710388232CF481E090E09AA389A33FC0D3
:1015A0006BA17CA18DA19EA120E03FEF4FE757E406
:1015B0000E94110318164CF56FA178A589A59AA56C
:1015C00020E030E040E251E40E941702DC01CB0150
:1015D000BC01CD010E944100DC01CB019AA389A38B
:1015E0000FC089E190E098A38F8F8F8D98A101970C
:1015F000F1F798A38F8F89A19AA101979AA389A344
:1016000089A19AA1009769F714C06BA17CA18DA153
:101610009EA10E944100DC01CB019AA389A389A16C
:101620009AA19E8F8D8F8D8D9E8D0197F1F79E8F44
:101630008D8F82E060E00E94DF0582E061E00E9421
:10164000BD0582E062E00E94DF0580E090E0AAEF45
:10165000B3E4898F9A8FAB8FBC8F698D7A8D8B8D18
:101660009C8D20E030E04AE753E40E941702DC0141
:10167000CB018D8B9E8BAF8BB88F6D897E898F89C7
:10168000988D20E030E040E85FE30E9471038823FA
:101690002CF481E090E09C8B8B8B3FC06D897E8920
:1016A0008F89988D20E03FEF4FE757E40E941103A8
:1016B00018164CF5698D7A8D8B8D9C8D20E030E06D
:1016C00040E251E40E941702DC01CB01BC01CD01D4
:1016D0000E944100DC01CB019C8B8B8B0FC089E108
:1016E00090E09A8B898B89899A890197F1F79A8B77
:1016F000898B8B899C8901979C8B8B8B8B899C898F
:10170000009769F714C06D897E898F89988D0E9432
:101710004100DC01CB019C8B8B8B8B899C89988B46
:101720008F878F8598890197F1F7988B8F8782E053
:1017300060E00E94DF0582E061E00E94DF0582E058
:1017400062E00E94BD0580E090E0AAEFB3E48B87E1
:101750009C87AD87BE876B857C858D859E8520E0C7
:1017600030E04AE753E40E941702DC01CB018F838B
:101770009887A987BA876F81788589859A8520E0BF
:1017800030E040E85FE30E94710388232CF481E09D
:1017900090E09E838D833FC06F81788589859A858F
:1017A00020E03FEF4FE757E40E94110318164CF575
:1017B0006B857C858D859E8520E030E040E251E49C
:1017C0000E941702DC01CB01BC01CD010E94410047
:1017D000DC01CB019E838D830FC089E190E09C8367
:1017E0008B838B819C810197F1F79C838B838D8107
:1017F0009E8101979E838D838D819E81009769F7DD
:101800009ACE6F81788589859A850E944100DC0196
:10181000CB019E838D838D819E819A83898389816B
:101820009A810197F1F79A83898385CE2F923F920F
:101830004F925F926F927F928F929F92AF92BF92E0
:10184000CF92DF92EF92FF920F931F93CF93DF938C
:10185000CDB7DEB7CA1BDB0B0FB6F894DEBF0FBEE9
:10186000CDBF09942A88398848885F846E847D8436
:101870008C849B84AA84B984C884DF80EE80FD8038
:101880000C811B81AA81B981CE0FD11D0FB6F894AE
:0E189000DEBF0FBECDBFED010895F894FFCF6F
:08189E00000000000000000042
:00000001FF
